{
  "contractName": "ComicAccount",
  "abi": [
    {
      "inputs": [],
      "payable": false,
      "stateMutability": "nonpayable",
      "type": "constructor"
    },
    {
      "anonymous": false,
      "inputs": [],
      "name": "Initialized",
      "type": "event"
    },
    {
      "payable": true,
      "stateMutability": "payable",
      "type": "fallback"
    },
    {
      "constant": true,
      "inputs": [
        {
          "internalType": "address",
          "name": "",
          "type": "address"
        }
      ],
      "name": "acquiredVotes",
      "outputs": [
        {
          "internalType": "uint256",
          "name": "",
          "type": "uint256"
        }
      ],
      "payable": false,
      "stateMutability": "view",
      "type": "function"
    },
    {
      "constant": true,
      "inputs": [
        {
          "internalType": "uint256",
          "name": "",
          "type": "uint256"
        }
      ],
      "name": "balanceOf",
      "outputs": [
        {
          "internalType": "uint256",
          "name": "",
          "type": "uint256"
        }
      ],
      "payable": false,
      "stateMutability": "view",
      "type": "function"
    },
    {
      "constant": true,
      "inputs": [
        {
          "internalType": "uint256",
          "name": "",
          "type": "uint256"
        }
      ],
      "name": "candidates",
      "outputs": [
        {
          "internalType": "address payable",
          "name": "",
          "type": "address"
        }
      ],
      "payable": false,
      "stateMutability": "view",
      "type": "function"
    },
    {
      "constant": true,
      "inputs": [],
      "name": "initialized",
      "outputs": [
        {
          "internalType": "bool",
          "name": "",
          "type": "bool"
        }
      ],
      "payable": false,
      "stateMutability": "view",
      "type": "function"
    },
    {
      "constant": true,
      "inputs": [
        {
          "internalType": "address",
          "name": "",
          "type": "address"
        }
      ],
      "name": "isCandidate",
      "outputs": [
        {
          "internalType": "bool",
          "name": "",
          "type": "bool"
        }
      ],
      "payable": false,
      "stateMutability": "view",
      "type": "function"
    },
    {
      "constant": true,
      "inputs": [],
      "name": "uploader",
      "outputs": [
        {
          "internalType": "address payable",
          "name": "",
          "type": "address"
        }
      ],
      "payable": false,
      "stateMutability": "view",
      "type": "function"
    },
    {
      "constant": true,
      "inputs": [
        {
          "internalType": "address",
          "name": "",
          "type": "address"
        }
      ],
      "name": "votingStatus",
      "outputs": [
        {
          "internalType": "bool",
          "name": "alreadyVoted",
          "type": "bool"
        },
        {
          "internalType": "address",
          "name": "votedTo",
          "type": "address"
        }
      ],
      "payable": false,
      "stateMutability": "view",
      "type": "function"
    },
    {
      "constant": false,
      "inputs": [
        {
          "internalType": "address payable",
          "name": "_uploader",
          "type": "address"
        }
      ],
      "name": "initialize",
      "outputs": [],
      "payable": false,
      "stateMutability": "nonpayable",
      "type": "function"
    },
    {
      "constant": false,
      "inputs": [
        {
          "internalType": "address",
          "name": "_candidate",
          "type": "address"
        }
      ],
      "name": "vote",
      "outputs": [],
      "payable": false,
      "stateMutability": "nonpayable",
      "type": "function"
    },
    {
      "constant": false,
      "inputs": [],
      "name": "beCandidate",
      "outputs": [],
      "payable": false,
      "stateMutability": "nonpayable",
      "type": "function"
    },
    {
      "constant": true,
      "inputs": [],
      "name": "getCurrentCreator",
      "outputs": [
        {
          "internalType": "address",
          "name": "",
          "type": "address"
        }
      ],
      "payable": false,
      "stateMutability": "view",
      "type": "function"
    },
    {
      "constant": false,
      "inputs": [],
      "name": "withdraw",
      "outputs": [],
      "payable": false,
      "stateMutability": "nonpayable",
      "type": "function"
    },
    {
      "constant": true,
      "inputs": [],
      "name": "getCandidatesLength",
      "outputs": [
        {
          "internalType": "uint256",
          "name": "",
          "type": "uint256"
        }
      ],
      "payable": false,
      "stateMutability": "view",
      "type": "function"
    }
  ],
  "bytecode": "0x60806040526000805460ff1916905534801561001a57600080fd5b50610c638061002a6000396000f3fe6080604052600436106100d25760003560e01c806343a9616f1161007f5780636dd7d8ea116100595780636dd7d8ea146103b05780639cc7f708146103e3578063c4d66de81461040d578063d51b9e9314610440576100d2565b806343a9616f1461033057806360d8fd6d1461038657806365fe2a0b1461039b576100d2565b8063301fa53d116100b0578063301fa53d146102be5780633477ee2e146102d55780633ccfd60b1461031b576100d2565b8063093825ec1461023b578063158ef93e146102805780631859df65146102a9575b600160009081526005602052347f1471eb6eb2c5e789fc3de43f8ce62938c7d1836ec861730447e2ada8fd81017b555461010090046001600160a01b0316156101ad57610137600161012b34600a63ffffffff61047316565b9063ffffffff6104df16565b6000805260056020527f05b8ccbb9d4d8fb16ea74ce3c29a41f1b461fbdaff4714a0d9a8eb05499746bc8054919091019055610179600161012b34600a610473565b600160005260056020527f1471eb6eb2c5e789fc3de43f8ce62938c7d1836ec861730447e2ada8fd81017b80549190910390555b6101c3600161012b34600a63ffffffff61047316565b600260005260056020527f89832631fb3c3307a103ba2c84ab569c64d6182a18893dcd163f0f1c2090733a8054919091019055610206600161012b34600a610473565b600160005260056020527f1471eb6eb2c5e789fc3de43f8ce62938c7d1836ec861730447e2ada8fd81017b8054919091039055005b34801561024757600080fd5b5061026e6004803603602081101561025e57600080fd5b50356001600160a01b031661053f565b60408051918252519081900360200190f35b34801561028c57600080fd5b50610295610551565b604080519115158252519081900360200190f35b3480156102b557600080fd5b5061026e61055a565b3480156102ca57600080fd5b506102d3610560565b005b3480156102e157600080fd5b506102ff600480360360208110156102f857600080fd5b5035610622565b604080516001600160a01b039092168252519081900360200190f35b34801561032757600080fd5b506102d3610649565b34801561033c57600080fd5b506103636004803603602081101561035357600080fd5b50356001600160a01b0316610848565b6040805192151583526001600160a01b0390911660208301528051918290030190f35b34801561039257600080fd5b506102ff61086d565b3480156103a757600080fd5b506102ff6109a8565b3480156103bc57600080fd5b506102d3600480360360208110156103d357600080fd5b50356001600160a01b03166109bc565b3480156103ef57600080fd5b5061026e6004803603602081101561040657600080fd5b5035610ad4565b34801561041957600080fd5b506102d36004803603602081101561043057600080fd5b50356001600160a01b0316610ae6565b34801561044c57600080fd5b506102956004803603602081101561046357600080fd5b50356001600160a01b0316610b88565b60008082116104c9576040805162461bcd60e51b815260206004820152601a60248201527f536166654d6174683a206469766973696f6e206279207a65726f000000000000604482015290519081900360640190fd5b60008284816104d457fe5b049150505b92915050565b6000826104ee575060006104d9565b828202828482816104fb57fe5b04146105385760405162461bcd60e51b8152600401808060200182810382526021815260200180610bbf6021913960400191505060405180910390fd5b9392505050565b60036020526000908152604090205481565b60005460ff1681565b60015490565b3360009081526002602052604090205460ff16156105af5760405162461bcd60e51b8152600401808060200182810382526021815260200180610b9e6021913960400191505060405180910390fd5b336000818152600260205260408120805460ff191660019081179091558054808201825591527fb10e2d527612073b26eecdfd717e6a320cf44b4afac2b0732d9fcbe2b7fa0cf60180547fffffffffffffffffffffffff0000000000000000000000000000000000000000169091179055565b6001818154811061062f57fe5b6000918252602090912001546001600160a01b0316905081565b60005461010090046001600160a01b03166106ab576040805162461bcd60e51b815260206004820152601b60248201527f75706c6f61646572206973206e6f742079657420646566696e65640000000000604482015290519081900360640190fd5b60006106b561086d565b60005490915061010090046001600160a01b031633141561072957600080805260056020527f05b8ccbb9d4d8fb16ea74ce3c29a41f1b461fbdaff4714a0d9a8eb05499746bc54604051339282156108fc02929190818181858888f19350505050158015610727573d6000803e3d6000fd5b505b6001600160a01b038116331415610795576001600090815260056020527f1471eb6eb2c5e789fc3de43f8ce62938c7d1836ec861730447e2ada8fd81017b54604051339282156108fc02929190818181858888f19350505050158015610793573d6000803e3d6000fd5b505b336000908152600460205260409020546001600160a01b03828116610100909204161415610845576001600160a01b03811660009081526003602090815260408220546002835260059091527f89832631fb3c3307a103ba2c84ab569c64d6182a18893dcd163f0f1c2090733a546108129163ffffffff61047316565b604051909150339082156108fc029083906000818181858888f19350505050158015610842573d6000803e3d6000fd5b50505b50565b60046020526000908152604090205460ff81169061010090046001600160a01b031682565b6001546000906108c4576040805162461bcd60e51b815260206004820152601660248201527f7468657265206973206e6f2063616e6469646174657300000000000000000000604482015290519081900360640190fd5b600080805b60015481101561094657600060036000600184815481106108e657fe5b60009182526020808320909101546001600160a01b0316835282019290925260400190205490508084101561093d578093506001828154811061092557fe5b6000918252602090912001546001600160a01b031692505b506001016108c9565b506001600160a01b0381166109a2576040805162461bcd60e51b815260206004820152601f60248201527f63726561746f722061646472657373206973207a65726f206164647265737300604482015290519081900360640190fd5b91505090565b60005461010090046001600160a01b031681565b6001600160a01b03811660009081526002602052604090205460ff16610a135760405162461bcd60e51b8152600401808060200182810382526024815260200180610c0b6024913960400191505060405180910390fd5b3360009081526004602052604090205460ff1615610a78576040805162461bcd60e51b815260206004820152601c60248201527f6d73672e73656e6465722068617320616c726561647920766f74656400000000604482015290519081900360640190fd5b6001600160a01b03166000818152600360209081526040808320805460019081019091553384526004909252909120805474ffffffffffffffffffffffffffffffffffffffff0019166101009093029290921760ff1916179055565b60056020526000908152604090205481565b60005460ff1615610b285760405162461bcd60e51b815260040180806020018281038252602b815260200180610be0602b913960400191505060405180910390fd5b60008054600174ffffffffffffffffffffffffffffffffffffffff00199091166101006001600160a01b038516021760ff19161781556040517f5daa87a0e9463431830481fd4b6e3403442dfb9a12b9c07597e9f61d50b633c89190a150565b60026020526000908152604090205460ff168156fe6d73672e73656e64657220697320616c726561647920612063616e646964617465536166654d6174683a206d756c7469706c69636174696f6e206f766572666c6f775468697320636f6e74726163742068617320616c7265616479206265656e20696e697469616c697a65642e7370656369666965642061646472657373206973206e6f7420612063616e646964617465a265627a7a72315820c53100af41f72cc1f8d257ffad54718a21ad20b241182c5497bd3ab84f848e0264736f6c634300050c0032",
  "source": "pragma solidity 0.5.12;\n\nimport \"openzeppelin-solidity/contracts/math/SafeMath.sol\";\n\ncontract ComicAccount  {\n  using SafeMath for uint256;\n\n  bool public initialized = false;\n  address payable public uploader;\n  address payable[] public candidates;\n  mapping(address => bool) public isCandidate;\n  mapping(address => uint256) public acquiredVotes;\n\n  struct Status {\n    bool alreadyVoted;\n    address votedTo;\n  }\n  mapping(address => Status) public votingStatus;\n\n  enum Recipients {\n    Uploader,\n    Creator,\n    Voter\n  }\n  mapping(uint256 => uint256) public balanceOf;\n\n  event Initialized();\n\n  constructor() public {}\n\n  // The fallback function for this contract.\n  function() external payable {\n    balanceOf[uint256(Recipients.Creator)] = msg.value;\n    if (uploader != address(0)) {\n      balanceOf[uint256(Recipients.Uploader)] += msg.value.div(10).mul(1);\n      balanceOf[uint256(Recipients.Creator)] -= msg.value.div(10).mul(1);\n    }\n    balanceOf[uint256(Recipients.Voter)] += msg.value.div(10).mul(1);\n    balanceOf[uint256(Recipients.Creator)] -= msg.value.div(10).mul(1);\n  }\n\n  function initialize(address payable _uploader) public {\n    require(!initialized, \"This contract has already been initialized.\");\n    uploader = _uploader;\n    initialized = true;\n    emit Initialized();\n  }\n\n  function vote(address _candidate) public {\n    require(isCandidate[_candidate], \"specified address is not a candidate\");\n    require(!votingStatus[msg.sender].alreadyVoted, \"msg.sender has already voted\");\n\n    acquiredVotes[_candidate] += 1;\n    votingStatus[msg.sender].votedTo = _candidate;\n    votingStatus[msg.sender].alreadyVoted = true;\n  }\n\n  function beCandidate() public {\n    require(!isCandidate[msg.sender], \"msg.sender is already a candidate\");\n    isCandidate[msg.sender] = true;\n    candidates.push(msg.sender);\n  }\n\n  function getCurrentCreator() public view returns (address) {\n    require(candidates.length != 0, \"there is no candidates\");\n    uint256 highest = 0;\n    address creator;\n    for(uint256 i = 0; i < candidates.length; i++) {\n      uint256 amount = acquiredVotes[candidates[i]];\n      if (highest < amount) {\n        highest = amount;\n        creator = candidates[i];\n      }\n    }\n    require(creator != address(0), \"creator address is zero address\");\n    return creator;\n  }\n\n  function withdraw() public {\n    require(uploader != address(0), \"uploader is not yet defined\");\n    address creator = getCurrentCreator();\n    if (uploader == msg.sender) {\n      msg.sender.transfer(balanceOf[uint256(Recipients.Uploader)]);\n    }\n    if (creator == msg.sender) {\n      msg.sender.transfer(balanceOf[uint256(Recipients.Creator)]);\n    }\n    if (votingStatus[msg.sender].votedTo == creator) {\n      uint256 amount = balanceOf[uint256(Recipients.Voter)].div(acquiredVotes[creator]);\n      msg.sender.transfer(amount);\n    }\n  }\n\n  function getCandidatesLength() public view returns (uint256) {\n    return candidates.length;\n  }\n}\n",
  "sourcePath": "/Users/uchimuraseita/go/src/github.com/jphacks/TK_1907/smart-contract/contracts/ComicAccount.sol",
  "compiler": {
    "name": "solc",
    "version": "0.5.12+commit.7709ece9.Emscripten.clang"
  },
  "schemaVersion": "3.0.11",
  "updatedAt": "2019-10-26T10:31:16.078Z",
  "devdoc": {
    "methods": {}
  },
  "userdoc": {
    "methods": {}
  }
}