{
  "contractName": "ComicAccount",
  "abi": [
    {
      "inputs": [],
      "payable": false,
      "stateMutability": "nonpayable",
      "type": "constructor"
    },
    {
      "anonymous": false,
      "inputs": [],
      "name": "Initialized",
      "type": "event"
    },
    {
      "payable": true,
      "stateMutability": "payable",
      "type": "fallback"
    },
    {
      "constant": true,
      "inputs": [],
      "name": "initialized",
      "outputs": [
        {
          "internalType": "bool",
          "name": "",
          "type": "bool"
        }
      ],
      "payable": false,
      "stateMutability": "view",
      "type": "function"
    },
    {
      "constant": true,
      "inputs": [],
      "name": "uploader",
      "outputs": [
        {
          "internalType": "address payable",
          "name": "",
          "type": "address"
        }
      ],
      "payable": false,
      "stateMutability": "view",
      "type": "function"
    },
    {
      "constant": false,
      "inputs": [
        {
          "internalType": "address payable",
          "name": "_uploader",
          "type": "address"
        }
      ],
      "name": "initialize",
      "outputs": [],
      "payable": false,
      "stateMutability": "nonpayable",
      "type": "function"
    }
  ],
  "bytecode": "0x60806040526000805460ff1916905534801561001a57600080fd5b506101fa8061002a6000396000f3fe6080604052600436106100345760003560e01c8063158ef93e1461003657806365fe2a0b1461005f578063c4d66de81461009d575b005b34801561004257600080fd5b5061004b6100dd565b604080519115158252519081900360200190f35b34801561006b57600080fd5b506100746100e6565b6040805173ffffffffffffffffffffffffffffffffffffffff9092168252519081900360200190f35b3480156100a957600080fd5b50610034600480360360208110156100c057600080fd5b503573ffffffffffffffffffffffffffffffffffffffff16610107565b60005460ff1681565b600054610100900473ffffffffffffffffffffffffffffffffffffffff1681565b60005460ff1615610163576040517f08c379a000000000000000000000000000000000000000000000000000000000815260040180806020018281038252602b81526020018061019b602b913960400191505060405180910390fd5b6000805460ff191660011781556040517f5daa87a0e9463431830481fd4b6e3403442dfb9a12b9c07597e9f61d50b633c89190a15056fe5468697320636f6e74726163742068617320616c7265616479206265656e20696e697469616c697a65642ea265627a7a723158205e26719b13ac7f05ef40b2fa8c7ce1cb4f27c304812fed0387b288e298d5bf6264736f6c634300050c0032",
  "source": "pragma solidity 0.5.12;\n\ncontract ComicAccount  {\n\n  bool public initialized = false;\n  address payable public uploader;\n  event Initialized();\n\n  constructor() public {}\n\n  // The fallback function for this contract.\n  function() external payable {\n    // TODO 収益分配のロジックを書く\n  }\n\n  function initialize(address payable _uploader) public {\n    require(!initialized, \"This contract has already been initialized.\");\n\n    //address zeroAddress = address(0);\n    _uploader;\n\n    //for (uint i = 0; i < _owners.length; i++) {\n      //require(_owners[i] != zeroAddress, \"Owner address cannot be zero address.\");\n      //require(!owners[_owners[i]], \"Owners must be different address.\");\n      //owners[_owners[i]] = true;\n    //}\n\n    //// TODO MofNの順序を考えて直感的なvalidationをかける\n    //require(_signerNum > 0, \"SignerNum has to be greater than zero.\");\n    //require(_signerNum <= _owners.length, \"SignerNum cannot be greater than owners.\");\n    //signerNum = _signerNum;\n\n    initialized = true;\n    emit Initialized();\n  }\n\n  // Generates the message to sign given the output destination address and amount.\n  // includes this contract's address and a nonce for replay protection.\n  // One option to independently verify:\n  //     https://leventozturk.com/engineering/sha3/ and select keccak\n  //function generateMessageToSign(\n    //address _destination,\n    //uint256 _value,\n    //address _tokenAddress,\n    //uint256 _nonce\n  //)\n  //public view returns (bytes32)\n  //{\n    //require(_destination != address(this), \"Destination cannot be this contract.\");\n\n    //bytes32 message = keccak256(\n      //abi.encodePacked(\n        //this,\n        //_destination,\n        //_value,\n        //_tokenAddress,\n        //_nonce\n      //)\n    //);\n    //return message;\n  //}\n\n  //// generate message for ERC721\n  //function generateMessageToSign(\n    //address _destination,\n    //address _tokenAddress,\n    //uint256 _tokenId,\n    //uint256 _nonce\n  //)\n  //public view returns (bytes32)\n  //{\n    //require(_destination != address(this), \"Destination cannot be this contract.\");\n\n    //bytes32 message = keccak256(\n      //abi.encodePacked(\n        //this,\n        //_destination,\n        //_tokenAddress,\n        //_tokenId,\n        //_nonce\n      //)\n    //);\n    //return message;\n  //}\n\n  //// Send the given amount of ETH to the given destination using\n  //// the two triplets (v1, r1, s1) and (v2, r2, s2) as signatures.\n  //// s1 and s2 should be 0x00 or 0x01 corresponding to 0x1b and 0x1c respectively.\n  //function spend(\n    //address payable _destination,\n    //uint256 _value,\n    //address _tokenAddress,\n    //uint8[] memory _v,\n    //bytes32[] memory _r,\n    //bytes32[] memory _s\n  //)\n  //public\n  //{\n    //// This require is handled by generateMessageToSign()\n    //// require(destination != address(this));\n    //require(\n      //_validSignature(\n        //_destination,\n        //_value,\n        //_tokenAddress,\n        //_v, _r, _s\n    //),\n    //\"Invalid signature.\");\n    //spendNonce = spendNonce + 1;\n\n    //if(_tokenAddress == ETH_ADDRESS) {\n      //require(address(this).balance >= _value, \"Insufficient balance to send.\");\n      //(bool success, bytes memory _) = _destination.call.value(_value).gas(10000)(\"\");\n      //require(success, \"Ether transfer failed.\");\n      //_;\n    //} else {\n      //ERC20Interface instance = ERC20Interface(_tokenAddress);\n      //require(instance.transfer(_destination, _value), \"Token transfer failed.\");\n    //}\n    //emit Spent(_destination, _value, _tokenAddress);\n  //}\n\n\n  //// Send the given amount of ETH to the given destination using\n  //// the two triplets (v1, r1, s1) and (v2, r2, s2) as signatures.\n  //// s1 and s2 should be 0x00 or 0x01 corresponding to 0x1b and 0x1c respectively.\n  //function spend(\n    //address payable _destination,\n    //address _tokenAddress,\n    //uint256  _tokenId,\n    //uint8[] memory _v,\n    //bytes32[] memory _r,\n    //bytes32[] memory _s\n  //)\n  //public\n  //{\n    //// This require is handled by generateMessageToSign()\n    //// require(destination != address(this));\n    //require(\n      //_validSignature(\n        //_destination,\n        //_tokenAddress,\n        //_tokenId,\n        //_v, _r, _s\n    //),\n    //\"Invalid signature.\");\n    //spendNonce = spendNonce + 1;\n\n    //ERC721Interface instance = ERC721Interface(_tokenAddress);\n    //instance.safeTransferFrom(address(this), _destination, _tokenId);\n\n    //emit Spent(_destination, _tokenAddress, _tokenId);\n  //}\n\n  //// Confirm that the two signature triplets (v1, r1, s1) and (v2, r2, s2)\n  //// both authorize a spend of this contract's funds to the given\n  //// destination address.\n  //function _validSignature(\n    //address _destination,\n    //uint256 _value,\n    //address _tokenAddress,\n    //uint8[] memory _v,\n    //bytes32[] memory _r,\n    //bytes32[] memory _s\n  //)\n  //private returns (bool)\n  //{\n    //bytes32 message = _messageToRecover(_destination, _value, _tokenAddress);\n\n    //require(_v.length == signerNum &&\n            //_r.length == signerNum &&\n            //_s.length == signerNum,\n    //\"Message was not signed by enough number of signers.\");\n\n    //address[] memory addrs = new address[](signerNum);\n    //for (uint i = 0; i < signerNum; i++) {\n      //addrs[i] = ecrecover(\n        //message,\n        //_v[i], _r[i], _s[i]\n      //);\n    //}\n\n    //require(_distinctOwners(addrs), \"Signing owners must be different.\");\n\n    //return true;\n  //}\n\n  //function _validSignature(\n    //address _destination,\n    //address _tokenAddress,\n    //uint256 _tokenId,\n    //uint8[] memory _v,\n    //bytes32[] memory _r,\n    //bytes32[] memory _s\n  //)\n  //private returns (bool)\n  //{\n    //bytes32 message = _messageToRecover(_destination, _tokenAddress, _tokenId);\n\n    //require(_v.length == signerNum &&\n            //_r.length == signerNum &&\n            //_s.length == signerNum,\n    //\"Message was not signed by enough number of signers.\");\n\n    //address[] memory addrs = new address[](signerNum);\n    //for (uint i = 0; i < signerNum; i++) {\n      //addrs[i] = ecrecover(\n        //message,\n        //_v[i], _r[i], _s[i]\n      //);\n    //}\n\n    //require(_distinctOwners(addrs), \"Signing owners must be different.\");\n\n    //return true;\n  //}\n\n\n  //// Generate the the unsigned message (in bytes32) that each owner's\n  //// wallet would have signed for the given destination and amount.\n  ////\n  //// The generated message from generateMessageToSign is converted to\n  //// ascii when signed by a trezor.\n  ////\n  //// The required signing prefix, the length of this\n  //// unsigned message, and the unsigned ascii message itself are\n  //// then concatenated and hashed with keccak256.\n  //function _messageToRecover(\n    //address _destination,\n    //uint256 _value,\n    //address _tokenAddress\n  //)\n  //private view returns (bytes32)\n  //{\n    //bytes32 hashedUnsignedMessage = generateMessageToSign(\n      //_destination,\n      //_value,\n      //_tokenAddress,\n      //spendNonce\n    //);\n    //bytes memory prefix = \"\\x19Ethereum Signed Message:\\n32\";\n    //return keccak256(abi.encodePacked(prefix, hashedUnsignedMessage));\n  //}\n\n  //function _messageToRecover(\n    //address _destination,\n    //address _tokenAddress,\n    //uint256 _tokenId\n  //)\n  //private view returns (bytes32)\n  //{\n    //bytes32 hashedUnsignedMessage = generateMessageToSign(\n      //_destination,\n      //_tokenAddress,\n      //_tokenId,\n      //spendNonce\n    //);\n    //bytes memory prefix = \"\\x19Ethereum Signed Message:\\n32\";\n    //return keccak256(abi.encodePacked(prefix, hashedUnsignedMessage));\n  //}\n\n  //// Confirm the pair of addresses as two distinct owners of this contract.\n  //function _distinctOwners(\n    //address[] memory _addrs\n  //)\n  //private returns (bool)\n  //{\n    //require(_addrs.length == signerNum, \"Invalid number of signer.\");\n\n    //for (uint i = 0; i < _addrs.length; i++) {\n      //require(_addrs[i] != address(0), \"Invalid signature.\");\n      //require(owners[_addrs[i]], \"Signer must be the owner.\");\n      //require(!checkedSigners[_addrs[i]], \"Signing owners must be different.\");\n      //checkedSigners[_addrs[i]] = true;\n    //}\n\n    //// deleting the result\n    //for (uint i = 0; i < _addrs.length; i++) {\n      //delete checkedSigners[_addrs[i]];\n    //}\n\n    //return true;\n  //}\n}\n",
  "sourcePath": "/Users/uchimuraseita/go/src/github.com/jphacks/TK_1907/smart-contract/contracts/ComicAccount.sol",
  "compiler": {
    "name": "solc",
    "version": "0.5.12+commit.7709ece9.Emscripten.clang"
  },
  "schemaVersion": "3.0.11",
  "updatedAt": "2019-10-26T03:04:51.632Z",
  "devdoc": {
    "methods": {}
  },
  "userdoc": {
    "methods": {}
  }
}