{
  "contractName": "ComicAccount",
  "abi": [
    {
      "inputs": [],
      "payable": false,
      "stateMutability": "nonpayable",
      "type": "constructor"
    },
    {
      "anonymous": false,
      "inputs": [],
      "name": "Initialized",
      "type": "event"
    },
    {
      "payable": true,
      "stateMutability": "payable",
      "type": "fallback"
    },
    {
      "constant": true,
      "inputs": [
        {
          "internalType": "address",
          "name": "",
          "type": "address"
        }
      ],
      "name": "acquiredVotes",
      "outputs": [
        {
          "internalType": "uint256",
          "name": "",
          "type": "uint256"
        }
      ],
      "payable": false,
      "stateMutability": "view",
      "type": "function"
    },
    {
      "constant": true,
      "inputs": [
        {
          "internalType": "uint256",
          "name": "",
          "type": "uint256"
        }
      ],
      "name": "balanceOf",
      "outputs": [
        {
          "internalType": "uint256",
          "name": "",
          "type": "uint256"
        }
      ],
      "payable": false,
      "stateMutability": "view",
      "type": "function"
    },
    {
      "constant": true,
      "inputs": [
        {
          "internalType": "uint256",
          "name": "",
          "type": "uint256"
        }
      ],
      "name": "candidates",
      "outputs": [
        {
          "internalType": "address payable",
          "name": "",
          "type": "address"
        }
      ],
      "payable": false,
      "stateMutability": "view",
      "type": "function"
    },
    {
      "constant": true,
      "inputs": [],
      "name": "initialized",
      "outputs": [
        {
          "internalType": "bool",
          "name": "",
          "type": "bool"
        }
      ],
      "payable": false,
      "stateMutability": "view",
      "type": "function"
    },
    {
      "constant": true,
      "inputs": [
        {
          "internalType": "address",
          "name": "",
          "type": "address"
        }
      ],
      "name": "isCandidate",
      "outputs": [
        {
          "internalType": "bool",
          "name": "",
          "type": "bool"
        }
      ],
      "payable": false,
      "stateMutability": "view",
      "type": "function"
    },
    {
      "constant": true,
      "inputs": [],
      "name": "uploader",
      "outputs": [
        {
          "internalType": "address payable",
          "name": "",
          "type": "address"
        }
      ],
      "payable": false,
      "stateMutability": "view",
      "type": "function"
    },
    {
      "constant": true,
      "inputs": [
        {
          "internalType": "address",
          "name": "",
          "type": "address"
        }
      ],
      "name": "votingStatus",
      "outputs": [
        {
          "internalType": "bool",
          "name": "alreadyVoted",
          "type": "bool"
        },
        {
          "internalType": "address",
          "name": "votedTo",
          "type": "address"
        }
      ],
      "payable": false,
      "stateMutability": "view",
      "type": "function"
    },
    {
      "constant": false,
      "inputs": [
        {
          "internalType": "address payable",
          "name": "_uploader",
          "type": "address"
        }
      ],
      "name": "initialize",
      "outputs": [],
      "payable": false,
      "stateMutability": "nonpayable",
      "type": "function"
    },
    {
      "constant": false,
      "inputs": [
        {
          "internalType": "address",
          "name": "_candidate",
          "type": "address"
        }
      ],
      "name": "vote",
      "outputs": [],
      "payable": false,
      "stateMutability": "nonpayable",
      "type": "function"
    },
    {
      "constant": false,
      "inputs": [],
      "name": "beCandidate",
      "outputs": [],
      "payable": false,
      "stateMutability": "nonpayable",
      "type": "function"
    },
    {
      "constant": true,
      "inputs": [],
      "name": "getCurrentCreator",
      "outputs": [
        {
          "internalType": "address",
          "name": "",
          "type": "address"
        }
      ],
      "payable": false,
      "stateMutability": "view",
      "type": "function"
    },
    {
      "constant": false,
      "inputs": [],
      "name": "withdraw",
      "outputs": [],
      "payable": false,
      "stateMutability": "nonpayable",
      "type": "function"
    }
  ],
  "bytecode": "0x60806040526000805460ff1916905534801561001a57600080fd5b50610c3d8061002a6000396000f3fe6080604052600436106100c75760003560e01c806360d8fd6d116100745780639cc7f7081161004e5780639cc7f708146103c3578063c4d66de8146103ed578063d51b9e9314610420576100c7565b806360d8fd6d1461036657806365fe2a0b1461037b5780636dd7d8ea14610390576100c7565b80633477ee2e116100a55780633477ee2e146102b55780633ccfd60b146102fb57806343a9616f14610310576100c7565b8063093825ec14610230578063158ef93e14610275578063301fa53d1461029e575b600160009081526005602052347f1471eb6eb2c5e789fc3de43f8ce62938c7d1836ec861730447e2ada8fd81017b555461010090046001600160a01b0316156101a25761012c600161012034600a63ffffffff61045316565b9063ffffffff6104bf16565b6000805260056020527f05b8ccbb9d4d8fb16ea74ce3c29a41f1b461fbdaff4714a0d9a8eb05499746bc805491909101905561016e600161012034600a610453565b600160005260056020527f1471eb6eb2c5e789fc3de43f8ce62938c7d1836ec861730447e2ada8fd81017b80549190910390555b6101b8600161012034600a63ffffffff61045316565b600260005260056020527f89832631fb3c3307a103ba2c84ab569c64d6182a18893dcd163f0f1c2090733a80549190910190556101fb600161012034600a610453565b600160005260056020527f1471eb6eb2c5e789fc3de43f8ce62938c7d1836ec861730447e2ada8fd81017b8054919091039055005b34801561023c57600080fd5b506102636004803603602081101561025357600080fd5b50356001600160a01b031661051f565b60408051918252519081900360200190f35b34801561028157600080fd5b5061028a610531565b604080519115158252519081900360200190f35b3480156102aa57600080fd5b506102b361053a565b005b3480156102c157600080fd5b506102df600480360360208110156102d857600080fd5b50356105fc565b604080516001600160a01b039092168252519081900360200190f35b34801561030757600080fd5b506102b3610623565b34801561031c57600080fd5b506103436004803603602081101561033357600080fd5b50356001600160a01b0316610822565b6040805192151583526001600160a01b0390911660208301528051918290030190f35b34801561037257600080fd5b506102df610847565b34801561038757600080fd5b506102df610982565b34801561039c57600080fd5b506102b3600480360360208110156103b357600080fd5b50356001600160a01b0316610996565b3480156103cf57600080fd5b50610263600480360360208110156103e657600080fd5b5035610aae565b3480156103f957600080fd5b506102b36004803603602081101561041057600080fd5b50356001600160a01b0316610ac0565b34801561042c57600080fd5b5061028a6004803603602081101561044357600080fd5b50356001600160a01b0316610b62565b60008082116104a9576040805162461bcd60e51b815260206004820152601a60248201527f536166654d6174683a206469766973696f6e206279207a65726f000000000000604482015290519081900360640190fd5b60008284816104b457fe5b049150505b92915050565b6000826104ce575060006104b9565b828202828482816104db57fe5b04146105185760405162461bcd60e51b8152600401808060200182810382526021815260200180610b996021913960400191505060405180910390fd5b9392505050565b60036020526000908152604090205481565b60005460ff1681565b3360009081526002602052604090205460ff16156105895760405162461bcd60e51b8152600401808060200182810382526021815260200180610b786021913960400191505060405180910390fd5b336000818152600260205260408120805460ff191660019081179091558054808201825591527fb10e2d527612073b26eecdfd717e6a320cf44b4afac2b0732d9fcbe2b7fa0cf60180547fffffffffffffffffffffffff0000000000000000000000000000000000000000169091179055565b6001818154811061060957fe5b6000918252602090912001546001600160a01b0316905081565b60005461010090046001600160a01b0316610685576040805162461bcd60e51b815260206004820152601b60248201527f75706c6f61646572206973206e6f742079657420646566696e65640000000000604482015290519081900360640190fd5b600061068f610847565b60005490915061010090046001600160a01b031633141561070357600080805260056020527f05b8ccbb9d4d8fb16ea74ce3c29a41f1b461fbdaff4714a0d9a8eb05499746bc54604051339282156108fc02929190818181858888f19350505050158015610701573d6000803e3d6000fd5b505b6001600160a01b03811633141561076f576001600090815260056020527f1471eb6eb2c5e789fc3de43f8ce62938c7d1836ec861730447e2ada8fd81017b54604051339282156108fc02929190818181858888f1935050505015801561076d573d6000803e3d6000fd5b505b336000908152600460205260409020546001600160a01b0382811661010090920416141561081f576001600160a01b03811660009081526003602090815260408220546002835260059091527f89832631fb3c3307a103ba2c84ab569c64d6182a18893dcd163f0f1c2090733a546107ec9163ffffffff61045316565b604051909150339082156108fc029083906000818181858888f1935050505015801561081c573d6000803e3d6000fd5b50505b50565b60046020526000908152604090205460ff81169061010090046001600160a01b031682565b60015460009061089e576040805162461bcd60e51b815260206004820152601660248201527f7468657265206973206e6f2063616e6469646174657300000000000000000000604482015290519081900360640190fd5b600080805b60015481101561092057600060036000600184815481106108c057fe5b60009182526020808320909101546001600160a01b0316835282019290925260400190205490508084101561091757809350600182815481106108ff57fe5b6000918252602090912001546001600160a01b031692505b506001016108a3565b506001600160a01b03811661097c576040805162461bcd60e51b815260206004820152601f60248201527f63726561746f722061646472657373206973207a65726f206164647265737300604482015290519081900360640190fd5b91505090565b60005461010090046001600160a01b031681565b6001600160a01b03811660009081526002602052604090205460ff166109ed5760405162461bcd60e51b8152600401808060200182810382526024815260200180610be56024913960400191505060405180910390fd5b3360009081526004602052604090205460ff1615610a52576040805162461bcd60e51b815260206004820152601c60248201527f6d73672e73656e6465722068617320616c726561647920766f74656400000000604482015290519081900360640190fd5b6001600160a01b03166000818152600360209081526040808320805460019081019091553384526004909252909120805474ffffffffffffffffffffffffffffffffffffffff0019166101009093029290921760ff1916179055565b60056020526000908152604090205481565b60005460ff1615610b025760405162461bcd60e51b815260040180806020018281038252602b815260200180610bba602b913960400191505060405180910390fd5b60008054600174ffffffffffffffffffffffffffffffffffffffff00199091166101006001600160a01b038516021760ff19161781556040517f5daa87a0e9463431830481fd4b6e3403442dfb9a12b9c07597e9f61d50b633c89190a150565b60026020526000908152604090205460ff168156fe6d73672e73656e64657220697320616c726561647920612063616e646964617465536166654d6174683a206d756c7469706c69636174696f6e206f766572666c6f775468697320636f6e74726163742068617320616c7265616479206265656e20696e697469616c697a65642e7370656369666965642061646472657373206973206e6f7420612063616e646964617465a265627a7a72315820df8890353e6eab9b18348b3a1bf5c6a6894a14080b3a1623d5b0615c02cf907b64736f6c634300050c0032",
  "source": "pragma solidity 0.5.12;\n\nimport \"openzeppelin-solidity/contracts/math/SafeMath.sol\";\n\ncontract ComicAccount  {\n  using SafeMath for uint256;\n\n  bool public initialized = false;\n  address payable public uploader;\n  address payable[] public candidates;\n  mapping(address => bool) public isCandidate;\n  mapping(address => uint256) public acquiredVotes;\n\n  struct Status {\n    bool alreadyVoted;\n    address votedTo;\n  }\n  mapping(address => Status) public votingStatus;\n\n  enum Recipients {\n    Uploader,\n    Creator,\n    Voter\n  }\n  mapping(uint256 => uint256) public balanceOf;\n\n  event Initialized();\n\n  constructor() public {}\n\n  // The fallback function for this contract.\n  function() external payable {\n    // TODO refactor\n    balanceOf[uint256(Recipients.Creator)] = msg.value;\n    if (uploader != address(0)) {\n      balanceOf[uint256(Recipients.Uploader)] += msg.value.div(10).mul(1);\n      balanceOf[uint256(Recipients.Creator)] -= msg.value.div(10).mul(1);\n    }\n    balanceOf[uint256(Recipients.Voter)] += msg.value.div(10).mul(1);\n    balanceOf[uint256(Recipients.Creator)] -= msg.value.div(10).mul(1);\n  }\n\n  function initialize(address payable _uploader) public {\n    require(!initialized, \"This contract has already been initialized.\");\n    uploader = _uploader;\n    initialized = true;\n    emit Initialized();\n  }\n\n  function vote(address _candidate) public {\n    require(isCandidate[_candidate], \"specified address is not a candidate\");\n    require(!votingStatus[msg.sender].alreadyVoted, \"msg.sender has already voted\");\n\n    acquiredVotes[_candidate] += 1;\n    votingStatus[msg.sender].votedTo = _candidate;\n    votingStatus[msg.sender].alreadyVoted = true;\n  }\n\n  function beCandidate() public {\n    require(!isCandidate[msg.sender], \"msg.sender is already a candidate\");\n    isCandidate[msg.sender] = true;\n    candidates.push(msg.sender);\n  }\n\n  function getCurrentCreator() public view returns (address) {\n    require(candidates.length != 0, \"there is no candidates\");\n    uint256 highest = 0;\n    address creator;\n    for(uint256 i = 0; i < candidates.length; i++) {\n      uint256 amount = acquiredVotes[candidates[i]];\n      if (highest < amount) {\n        highest = amount;\n        creator = candidates[i];\n      }\n    }\n    require(creator != address(0), \"creator address is zero address\");\n    return creator;\n  }\n\n  function withdraw() public {\n    require(uploader != address(0), \"uploader is not yet defined\");\n    address creator = getCurrentCreator();\n    if (uploader == msg.sender) {\n      msg.sender.transfer(balanceOf[uint256(Recipients.Uploader)]);\n    }\n    if (creator == msg.sender) {\n      msg.sender.transfer(balanceOf[uint256(Recipients.Creator)]);\n    }\n    if (votingStatus[msg.sender].votedTo == creator) {\n      uint256 amount = balanceOf[uint256(Recipients.Voter)].div(acquiredVotes[creator]);\n      msg.sender.transfer(amount);\n    }\n  }\n}\n",
  "sourcePath": "/Users/uchimuraseita/go/src/github.com/jphacks/TK_1907/smart-contract/contracts/ComicAccount.sol",
  "compiler": {
    "name": "solc",
    "version": "0.5.12+commit.7709ece9.Emscripten.clang"
  },
  "schemaVersion": "3.0.11",
  "updatedAt": "2019-10-26T08:43:28.373Z",
  "devdoc": {
    "methods": {}
  },
  "userdoc": {
    "methods": {}
  }
}