{
  "contractName": "HasNoEther",
  "abi": [
    {
      "inputs": [],
      "payable": true,
      "stateMutability": "payable",
      "type": "constructor"
    },
    {
      "anonymous": false,
      "inputs": [
        {
          "indexed": true,
          "internalType": "address",
          "name": "previousOwner",
          "type": "address"
        }
      ],
      "name": "OwnershipRenounced",
      "type": "event"
    },
    {
      "anonymous": false,
      "inputs": [
        {
          "indexed": true,
          "internalType": "address",
          "name": "previousOwner",
          "type": "address"
        },
        {
          "indexed": true,
          "internalType": "address",
          "name": "newOwner",
          "type": "address"
        }
      ],
      "name": "OwnershipTransferred",
      "type": "event"
    },
    {
      "payable": false,
      "stateMutability": "nonpayable",
      "type": "fallback"
    },
    {
      "constant": true,
      "inputs": [],
      "name": "owner",
      "outputs": [
        {
          "internalType": "address",
          "name": "",
          "type": "address"
        }
      ],
      "payable": false,
      "stateMutability": "view",
      "type": "function"
    },
    {
      "constant": false,
      "inputs": [],
      "name": "renounceOwnership",
      "outputs": [],
      "payable": false,
      "stateMutability": "nonpayable",
      "type": "function"
    },
    {
      "constant": false,
      "inputs": [
        {
          "internalType": "address",
          "name": "_newOwner",
          "type": "address"
        }
      ],
      "name": "transferOwnership",
      "outputs": [],
      "payable": false,
      "stateMutability": "nonpayable",
      "type": "function"
    },
    {
      "constant": false,
      "inputs": [],
      "name": "reclaimEther",
      "outputs": [],
      "payable": false,
      "stateMutability": "nonpayable",
      "type": "function"
    }
  ],
  "bytecode": "0x6080604052600080546001600160a01b03191633179055341561008357604080517f08c379a000000000000000000000000000000000000000000000000000000000815260206004820152601360248201527f6d757374206e6f742073656e6420457468657200000000000000000000000000604482015290519081900360640190fd5b610325806100926000396000f3fe608060405234801561001057600080fd5b506004361061004c5760003560e01c8063715018a61461004e5780638da5cb5b146100565780639f727c271461007a578063f2fde38b14610082575b005b61004c6100a8565b61005e61014c565b604080516001600160a01b039092168252519081900360200190f35b61004c61015b565b61004c6004803603602081101561009857600080fd5b50356001600160a01b03166101da565b6000546001600160a01b031633146100f7576040805162461bcd60e51b815260206004820152600d60248201526c36bab9ba1031329037bbb732b960991b604482015290519081900360640190fd5b600080546040516001600160a01b03909116917ff8df31144d9c2f0f6b59d69b8b98abd5459d07f2742c4df920b25aae33c6482091a26000805473ffffffffffffffffffffffffffffffffffffffff19169055565b6000546001600160a01b031681565b6000546001600160a01b031633146101aa576040805162461bcd60e51b815260206004820152600d60248201526c36bab9ba1031329037bbb732b960991b604482015290519081900360640190fd5b6040513390303180156108fc02916000818181858888f193505050501580156101d7573d6000803e3d6000fd5b50565b6000546001600160a01b03163314610229576040805162461bcd60e51b815260206004820152600d60248201526c36bab9ba1031329037bbb732b960991b604482015290519081900360640190fd5b6101d7816001600160a01b038116610288576040805162461bcd60e51b815260206004820152601960248201527f63616e6e6f742072656e6f756e6365206f776e65727368697000000000000000604482015290519081900360640190fd5b600080546040516001600160a01b03808516939216917f8be0079c531659141344cd1fd0a4f28419497f9722a3daafe3b4186f6b6457e091a36000805473ffffffffffffffffffffffffffffffffffffffff19166001600160a01b039290921691909117905556fea265627a7a72315820bded9fc6cd0f2fc45a44d8575a072bb2657012bbbc69c41c3bf95c261713e5b764736f6c634300050c0032",
  "source": "pragma solidity 0.5.12;\n//pragma solidity ^0.4.24;\n\nimport \"./Ownable.sol\";\n\n/// @title HasNoEther is for contracts that should not own Ether\ncontract HasNoEther is Ownable {\n\n    /// @dev This contructor rejects incoming Ether\n    constructor() public payable {\n        require(msg.value == 0, \"must not send Ether\");\n    }\n\n    /// @dev Disallows direct send by default function not being `payable`\n    function() external {}\n\n    /// @dev Transfers all Ether held by this contract to the owner.\n    function reclaimEther() external onlyOwner {\n        msg.sender.transfer(address(this).balance); \n    }\n}\n",
  "sourcePath": "/Users/uchimuraseita/go/src/github.com/jphacks/TK_1907/smart-contract/contracts/Ownership/HasNoEther.sol",
  "compiler": {
    "name": "solc",
    "version": "0.5.12+commit.7709ece9.Emscripten.clang"
  },
  "schemaVersion": "3.0.11",
  "updatedAt": "2019-10-26T03:03:39.381Z",
  "devdoc": {
    "methods": {
      "constructor": {
        "details": "This contructor rejects incoming Ether"
      },
      "reclaimEther()": {
        "details": "Transfers all Ether held by this contract to the owner."
      },
      "renounceOwnership()": {
        "details": "Allows the current `owner` to renounce ownership"
      },
      "transferOwnership(address)": {
        "details": "Allows the current `owner` to transfer ownership",
        "params": {
          "_newOwner": "The new `owner`"
        }
      }
    },
    "title": "HasNoEther is for contracts that should not own Ether"
  },
  "userdoc": {
    "methods": {}
  }
}