{
  "contractName": "MarineCore",
  "abi": [
    {
      "inputs": [],
      "payable": false,
      "stateMutability": "nonpayable",
      "type": "constructor"
    },
    {
      "anonymous": false,
      "inputs": [
        {
          "indexed": false,
          "internalType": "address",
          "name": "_comicAccount",
          "type": "address"
        }
      ],
      "name": "ComicAccountCreated",
      "type": "event"
    },
    {
      "payable": true,
      "stateMutability": "payable",
      "type": "fallback"
    },
    {
      "constant": true,
      "inputs": [
        {
          "internalType": "address",
          "name": "",
          "type": "address"
        }
      ],
      "name": "comicViews",
      "outputs": [
        {
          "internalType": "uint256",
          "name": "",
          "type": "uint256"
        }
      ],
      "payable": false,
      "stateMutability": "view",
      "type": "function"
    },
    {
      "constant": true,
      "inputs": [
        {
          "internalType": "uint256",
          "name": "",
          "type": "uint256"
        }
      ],
      "name": "comics",
      "outputs": [
        {
          "internalType": "contract ComicAccount",
          "name": "",
          "type": "address"
        }
      ],
      "payable": false,
      "stateMutability": "view",
      "type": "function"
    },
    {
      "constant": true,
      "inputs": [],
      "name": "totalViews",
      "outputs": [
        {
          "internalType": "uint256",
          "name": "",
          "type": "uint256"
        }
      ],
      "payable": false,
      "stateMutability": "view",
      "type": "function"
    },
    {
      "constant": false,
      "inputs": [
        {
          "internalType": "uint256",
          "name": "_salt",
          "type": "uint256"
        }
      ],
      "name": "createComicAccount",
      "outputs": [
        {
          "internalType": "address",
          "name": "",
          "type": "address"
        }
      ],
      "payable": false,
      "stateMutability": "nonpayable",
      "type": "function"
    },
    {
      "constant": true,
      "inputs": [
        {
          "internalType": "uint256",
          "name": "_salt",
          "type": "uint256"
        },
        {
          "internalType": "address payable",
          "name": "_sender",
          "type": "address"
        }
      ],
      "name": "getDeploymentAddress",
      "outputs": [
        {
          "internalType": "address",
          "name": "",
          "type": "address"
        }
      ],
      "payable": false,
      "stateMutability": "view",
      "type": "function"
    },
    {
      "constant": false,
      "inputs": [
        {
          "internalType": "address",
          "name": "_comicAccount",
          "type": "address"
        },
        {
          "internalType": "uint256",
          "name": "_views",
          "type": "uint256"
        }
      ],
      "name": "setViews",
      "outputs": [],
      "payable": false,
      "stateMutability": "nonpayable",
      "type": "function"
    }
  ],
  "bytecode": "0x608060405234801561001057600080fd5b5060405161002060208201610044565b601f1982820381018352601f90910116604052805160209190910120600055610051565b610c8d8061139c83390190565b61133c806100606000396000f3fe6080604052600436106100655760003560e01c8063acb1250d11610043578063acb1250d14610256578063aead592e14610280578063fc34bae21461029557610065565b80634c217cb4146101925780637a80dc1d146101d757806381ae1f5b1461021d575b60005b60035481101561018f5760006003828154811061008157fe5b60009182526020808320909101546001600160a01b0316808352600190915260408220546002549193506100cc916100c090349063ffffffff6102d016565b9063ffffffff61033c16565b6040519091506000906060906001600160a01b0385169062030d4090859085818181858888f193505050503d8060008114610123576040519150601f19603f3d011682016040523d82523d6000602084013e610128565b606091505b50915091508161017f576040805162461bcd60e51b815260206004820152601560248201527f6574686572207472616e73666572206661696c65640000000000000000000000604482015290519081900360640190fd5b5050600190920191506100689050565b50005b34801561019e57600080fd5b506101c5600480360360208110156101b557600080fd5b50356001600160a01b031661039c565b60408051918252519081900360200190f35b3480156101e357600080fd5b50610201600480360360208110156101fa57600080fd5b50356103ae565b604080516001600160a01b039092168252519081900360200190f35b34801561022957600080fd5b506102016004803603604081101561024057600080fd5b50803590602001356001600160a01b03166103d5565b34801561026257600080fd5b506102016004803603602081101561027957600080fd5b5035610452565b34801561028c57600080fd5b506101c561045e565b3480156102a157600080fd5b506102ce600480360360408110156102b857600080fd5b506001600160a01b038135169060200135610464565b005b6000808211610326576040805162461bcd60e51b815260206004820152601a60248201527f536166654d6174683a206469766973696f6e206279207a65726f000000000000604482015290519081900360640190fd5b600082848161033157fe5b049150505b92915050565b60008261034b57506000610336565b8282028284828161035857fe5b04146103955760405162461bcd60e51b81526004018080602001828103825260218152602001806112e76021913960400191505060405180910390fd5b9392505050565b60016020526000908152604090205481565b600381815481106103bb57fe5b6000918252602090912001546001600160a01b0316905081565b6000806103e2848461048e565b600054604080517fff000000000000000000000000000000000000000000000000000000000000006020808301919091523060601b6021830152603582019490945260558082019390935281518082039093018352607501905280519101206001600160a01b0316949350505050565b600061033682336104cd565b60025481565b6001600160a01b039091166000908152600160205260409020805482019055600280549091019055565b6040805160208082019490945260609290921b6bffffffffffffffffffffffff1916828201528051808303603401815260549092019052805191012090565b6000806104da84846105f3565b9050806001600160a01b031663c4d66de8846040518263ffffffff1660e01b815260040180826001600160a01b03166001600160a01b03168152602001915050600060405180830381600087803b15801561053457600080fd5b505af1158015610548573d6000803e3d6000fd5b5050604080516001600160a01b038516815290517fa2d5fbadd2ffff9d7192ee31e5d9457dbc6f447b6369d9defd2935461c406a5d9350908190036020019150a1600380546001810182556000919091527fc2575a0e9e593c00f959f8c92f12db2869c3395a3b0502d05e2516446f71f85b0180547fffffffffffffffffffffffff0000000000000000000000000000000000000000166001600160a01b0383161790559392505050565b6000806060604051806020016106089061064c565b601f1982820381018352601f9091011660405290506000610629868661048e565b9050808251602084016000f59250823b61064257600080fd5b5090949350505050565b610c8d8061065a8339019056fe60806040526000805460ff1916905534801561001a57600080fd5b50610c638061002a6000396000f3fe6080604052600436106100d25760003560e01c806343a9616f1161007f5780636dd7d8ea116100595780636dd7d8ea146103b05780639cc7f708146103e3578063c4d66de81461040d578063d51b9e9314610440576100d2565b806343a9616f1461033057806360d8fd6d1461038657806365fe2a0b1461039b576100d2565b8063301fa53d116100b0578063301fa53d146102be5780633477ee2e146102d55780633ccfd60b1461031b576100d2565b8063093825ec1461023b578063158ef93e146102805780631859df65146102a9575b600160009081526005602052347f1471eb6eb2c5e789fc3de43f8ce62938c7d1836ec861730447e2ada8fd81017b555461010090046001600160a01b0316156101ad57610137600161012b34600a63ffffffff61047316565b9063ffffffff6104df16565b6000805260056020527f05b8ccbb9d4d8fb16ea74ce3c29a41f1b461fbdaff4714a0d9a8eb05499746bc8054919091019055610179600161012b34600a610473565b600160005260056020527f1471eb6eb2c5e789fc3de43f8ce62938c7d1836ec861730447e2ada8fd81017b80549190910390555b6101c3600161012b34600a63ffffffff61047316565b600260005260056020527f89832631fb3c3307a103ba2c84ab569c64d6182a18893dcd163f0f1c2090733a8054919091019055610206600161012b34600a610473565b600160005260056020527f1471eb6eb2c5e789fc3de43f8ce62938c7d1836ec861730447e2ada8fd81017b8054919091039055005b34801561024757600080fd5b5061026e6004803603602081101561025e57600080fd5b50356001600160a01b031661053f565b60408051918252519081900360200190f35b34801561028c57600080fd5b50610295610551565b604080519115158252519081900360200190f35b3480156102b557600080fd5b5061026e61055a565b3480156102ca57600080fd5b506102d3610560565b005b3480156102e157600080fd5b506102ff600480360360208110156102f857600080fd5b5035610622565b604080516001600160a01b039092168252519081900360200190f35b34801561032757600080fd5b506102d3610649565b34801561033c57600080fd5b506103636004803603602081101561035357600080fd5b50356001600160a01b0316610848565b6040805192151583526001600160a01b0390911660208301528051918290030190f35b34801561039257600080fd5b506102ff61086d565b3480156103a757600080fd5b506102ff6109a8565b3480156103bc57600080fd5b506102d3600480360360208110156103d357600080fd5b50356001600160a01b03166109bc565b3480156103ef57600080fd5b5061026e6004803603602081101561040657600080fd5b5035610ad4565b34801561041957600080fd5b506102d36004803603602081101561043057600080fd5b50356001600160a01b0316610ae6565b34801561044c57600080fd5b506102956004803603602081101561046357600080fd5b50356001600160a01b0316610b88565b60008082116104c9576040805162461bcd60e51b815260206004820152601a60248201527f536166654d6174683a206469766973696f6e206279207a65726f000000000000604482015290519081900360640190fd5b60008284816104d457fe5b049150505b92915050565b6000826104ee575060006104d9565b828202828482816104fb57fe5b04146105385760405162461bcd60e51b8152600401808060200182810382526021815260200180610bbf6021913960400191505060405180910390fd5b9392505050565b60036020526000908152604090205481565b60005460ff1681565b60015490565b3360009081526002602052604090205460ff16156105af5760405162461bcd60e51b8152600401808060200182810382526021815260200180610b9e6021913960400191505060405180910390fd5b336000818152600260205260408120805460ff191660019081179091558054808201825591527fb10e2d527612073b26eecdfd717e6a320cf44b4afac2b0732d9fcbe2b7fa0cf60180547fffffffffffffffffffffffff0000000000000000000000000000000000000000169091179055565b6001818154811061062f57fe5b6000918252602090912001546001600160a01b0316905081565b60005461010090046001600160a01b03166106ab576040805162461bcd60e51b815260206004820152601b60248201527f75706c6f61646572206973206e6f742079657420646566696e65640000000000604482015290519081900360640190fd5b60006106b561086d565b60005490915061010090046001600160a01b031633141561072957600080805260056020527f05b8ccbb9d4d8fb16ea74ce3c29a41f1b461fbdaff4714a0d9a8eb05499746bc54604051339282156108fc02929190818181858888f19350505050158015610727573d6000803e3d6000fd5b505b6001600160a01b038116331415610795576001600090815260056020527f1471eb6eb2c5e789fc3de43f8ce62938c7d1836ec861730447e2ada8fd81017b54604051339282156108fc02929190818181858888f19350505050158015610793573d6000803e3d6000fd5b505b336000908152600460205260409020546001600160a01b03828116610100909204161415610845576001600160a01b03811660009081526003602090815260408220546002835260059091527f89832631fb3c3307a103ba2c84ab569c64d6182a18893dcd163f0f1c2090733a546108129163ffffffff61047316565b604051909150339082156108fc029083906000818181858888f19350505050158015610842573d6000803e3d6000fd5b50505b50565b60046020526000908152604090205460ff81169061010090046001600160a01b031682565b6001546000906108c4576040805162461bcd60e51b815260206004820152601660248201527f7468657265206973206e6f2063616e6469646174657300000000000000000000604482015290519081900360640190fd5b600080805b60015481101561094657600060036000600184815481106108e657fe5b60009182526020808320909101546001600160a01b0316835282019290925260400190205490508084101561093d578093506001828154811061092557fe5b6000918252602090912001546001600160a01b031692505b506001016108c9565b506001600160a01b0381166109a2576040805162461bcd60e51b815260206004820152601f60248201527f63726561746f722061646472657373206973207a65726f206164647265737300604482015290519081900360640190fd5b91505090565b60005461010090046001600160a01b031681565b6001600160a01b03811660009081526002602052604090205460ff16610a135760405162461bcd60e51b8152600401808060200182810382526024815260200180610c0b6024913960400191505060405180910390fd5b3360009081526004602052604090205460ff1615610a78576040805162461bcd60e51b815260206004820152601c60248201527f6d73672e73656e6465722068617320616c726561647920766f74656400000000604482015290519081900360640190fd5b6001600160a01b03166000818152600360209081526040808320805460019081019091553384526004909252909120805474ffffffffffffffffffffffffffffffffffffffff0019166101009093029290921760ff1916179055565b60056020526000908152604090205481565b60005460ff1615610b285760405162461bcd60e51b815260040180806020018281038252602b815260200180610be0602b913960400191505060405180910390fd5b60008054600174ffffffffffffffffffffffffffffffffffffffff00199091166101006001600160a01b038516021760ff19161781556040517f5daa87a0e9463431830481fd4b6e3403442dfb9a12b9c07597e9f61d50b633c89190a150565b60026020526000908152604090205460ff168156fe6d73672e73656e64657220697320616c726561647920612063616e646964617465536166654d6174683a206d756c7469706c69636174696f6e206f766572666c6f775468697320636f6e74726163742068617320616c7265616479206265656e20696e697469616c697a65642e7370656369666965642061646472657373206973206e6f7420612063616e646964617465a265627a7a72315820c53100af41f72cc1f8d257ffad54718a21ad20b241182c5497bd3ab84f848e0264736f6c634300050c0032536166654d6174683a206d756c7469706c69636174696f6e206f766572666c6f77a265627a7a72315820ce6c0ecdf79cb33bd7dc4cfbbfa39188ecf45f90b3759231d9d6bf33d9c1e14264736f6c634300050c003260806040526000805460ff1916905534801561001a57600080fd5b50610c638061002a6000396000f3fe6080604052600436106100d25760003560e01c806343a9616f1161007f5780636dd7d8ea116100595780636dd7d8ea146103b05780639cc7f708146103e3578063c4d66de81461040d578063d51b9e9314610440576100d2565b806343a9616f1461033057806360d8fd6d1461038657806365fe2a0b1461039b576100d2565b8063301fa53d116100b0578063301fa53d146102be5780633477ee2e146102d55780633ccfd60b1461031b576100d2565b8063093825ec1461023b578063158ef93e146102805780631859df65146102a9575b600160009081526005602052347f1471eb6eb2c5e789fc3de43f8ce62938c7d1836ec861730447e2ada8fd81017b555461010090046001600160a01b0316156101ad57610137600161012b34600a63ffffffff61047316565b9063ffffffff6104df16565b6000805260056020527f05b8ccbb9d4d8fb16ea74ce3c29a41f1b461fbdaff4714a0d9a8eb05499746bc8054919091019055610179600161012b34600a610473565b600160005260056020527f1471eb6eb2c5e789fc3de43f8ce62938c7d1836ec861730447e2ada8fd81017b80549190910390555b6101c3600161012b34600a63ffffffff61047316565b600260005260056020527f89832631fb3c3307a103ba2c84ab569c64d6182a18893dcd163f0f1c2090733a8054919091019055610206600161012b34600a610473565b600160005260056020527f1471eb6eb2c5e789fc3de43f8ce62938c7d1836ec861730447e2ada8fd81017b8054919091039055005b34801561024757600080fd5b5061026e6004803603602081101561025e57600080fd5b50356001600160a01b031661053f565b60408051918252519081900360200190f35b34801561028c57600080fd5b50610295610551565b604080519115158252519081900360200190f35b3480156102b557600080fd5b5061026e61055a565b3480156102ca57600080fd5b506102d3610560565b005b3480156102e157600080fd5b506102ff600480360360208110156102f857600080fd5b5035610622565b604080516001600160a01b039092168252519081900360200190f35b34801561032757600080fd5b506102d3610649565b34801561033c57600080fd5b506103636004803603602081101561035357600080fd5b50356001600160a01b0316610848565b6040805192151583526001600160a01b0390911660208301528051918290030190f35b34801561039257600080fd5b506102ff61086d565b3480156103a757600080fd5b506102ff6109a8565b3480156103bc57600080fd5b506102d3600480360360208110156103d357600080fd5b50356001600160a01b03166109bc565b3480156103ef57600080fd5b5061026e6004803603602081101561040657600080fd5b5035610ad4565b34801561041957600080fd5b506102d36004803603602081101561043057600080fd5b50356001600160a01b0316610ae6565b34801561044c57600080fd5b506102956004803603602081101561046357600080fd5b50356001600160a01b0316610b88565b60008082116104c9576040805162461bcd60e51b815260206004820152601a60248201527f536166654d6174683a206469766973696f6e206279207a65726f000000000000604482015290519081900360640190fd5b60008284816104d457fe5b049150505b92915050565b6000826104ee575060006104d9565b828202828482816104fb57fe5b04146105385760405162461bcd60e51b8152600401808060200182810382526021815260200180610bbf6021913960400191505060405180910390fd5b9392505050565b60036020526000908152604090205481565b60005460ff1681565b60015490565b3360009081526002602052604090205460ff16156105af5760405162461bcd60e51b8152600401808060200182810382526021815260200180610b9e6021913960400191505060405180910390fd5b336000818152600260205260408120805460ff191660019081179091558054808201825591527fb10e2d527612073b26eecdfd717e6a320cf44b4afac2b0732d9fcbe2b7fa0cf60180547fffffffffffffffffffffffff0000000000000000000000000000000000000000169091179055565b6001818154811061062f57fe5b6000918252602090912001546001600160a01b0316905081565b60005461010090046001600160a01b03166106ab576040805162461bcd60e51b815260206004820152601b60248201527f75706c6f61646572206973206e6f742079657420646566696e65640000000000604482015290519081900360640190fd5b60006106b561086d565b60005490915061010090046001600160a01b031633141561072957600080805260056020527f05b8ccbb9d4d8fb16ea74ce3c29a41f1b461fbdaff4714a0d9a8eb05499746bc54604051339282156108fc02929190818181858888f19350505050158015610727573d6000803e3d6000fd5b505b6001600160a01b038116331415610795576001600090815260056020527f1471eb6eb2c5e789fc3de43f8ce62938c7d1836ec861730447e2ada8fd81017b54604051339282156108fc02929190818181858888f19350505050158015610793573d6000803e3d6000fd5b505b336000908152600460205260409020546001600160a01b03828116610100909204161415610845576001600160a01b03811660009081526003602090815260408220546002835260059091527f89832631fb3c3307a103ba2c84ab569c64d6182a18893dcd163f0f1c2090733a546108129163ffffffff61047316565b604051909150339082156108fc029083906000818181858888f19350505050158015610842573d6000803e3d6000fd5b50505b50565b60046020526000908152604090205460ff81169061010090046001600160a01b031682565b6001546000906108c4576040805162461bcd60e51b815260206004820152601660248201527f7468657265206973206e6f2063616e6469646174657300000000000000000000604482015290519081900360640190fd5b600080805b60015481101561094657600060036000600184815481106108e657fe5b60009182526020808320909101546001600160a01b0316835282019290925260400190205490508084101561093d578093506001828154811061092557fe5b6000918252602090912001546001600160a01b031692505b506001016108c9565b506001600160a01b0381166109a2576040805162461bcd60e51b815260206004820152601f60248201527f63726561746f722061646472657373206973207a65726f206164647265737300604482015290519081900360640190fd5b91505090565b60005461010090046001600160a01b031681565b6001600160a01b03811660009081526002602052604090205460ff16610a135760405162461bcd60e51b8152600401808060200182810382526024815260200180610c0b6024913960400191505060405180910390fd5b3360009081526004602052604090205460ff1615610a78576040805162461bcd60e51b815260206004820152601c60248201527f6d73672e73656e6465722068617320616c726561647920766f74656400000000604482015290519081900360640190fd5b6001600160a01b03166000818152600360209081526040808320805460019081019091553384526004909252909120805474ffffffffffffffffffffffffffffffffffffffff0019166101009093029290921760ff1916179055565b60056020526000908152604090205481565b60005460ff1615610b285760405162461bcd60e51b815260040180806020018281038252602b815260200180610be0602b913960400191505060405180910390fd5b60008054600174ffffffffffffffffffffffffffffffffffffffff00199091166101006001600160a01b038516021760ff19161781556040517f5daa87a0e9463431830481fd4b6e3403442dfb9a12b9c07597e9f61d50b633c89190a150565b60026020526000908152604090205460ff168156fe6d73672e73656e64657220697320616c726561647920612063616e646964617465536166654d6174683a206d756c7469706c69636174696f6e206f766572666c6f775468697320636f6e74726163742068617320616c7265616479206265656e20696e697469616c697a65642e7370656369666965642061646472657373206973206e6f7420612063616e646964617465a265627a7a72315820c53100af41f72cc1f8d257ffad54718a21ad20b241182c5497bd3ab84f848e0264736f6c634300050c0032",
  "source": "pragma solidity 0.5.12;\n\nimport \"./ComicAccount.sol\";\nimport \"openzeppelin-solidity/contracts/math/SafeMath.sol\";\n\ncontract MarineCore {\n  using SafeMath for uint256;\n\n  event ComicAccountCreated(address _comicAccount);\n\n  bytes32 private contractCodeHash;\n\tmapping(address => uint256) public comicViews;\n\tuint256 public totalViews;\n  ComicAccount[] public comics;\n\n  constructor() public {\n    contractCodeHash = keccak256(\n      type(ComicAccount).creationCode\n    );\n  }\n\n  function() external payable {\n    for (uint256 i = 0; i < comics.length; i++) {\n      address payable comic = address(comics[i]);\n      uint256 reward = msg.value.div(totalViews).mul(comicViews[comic]);\n      (bool success, bytes memory _) = comic.call.value(reward).gas(200000)(\"\");\n      require(success, \"ether transfer failed\");\n      _;\n    }\n  }\n\n  function createComicAccount(uint256 _salt) public returns (address) {\n    return _createComicAccount(_salt, msg.sender);\n  }\n\n  function getDeploymentAddress(uint256 _salt, address payable _sender) public view returns (address) {\n    bytes32 salt = _getSalt(_salt, _sender);\n    bytes32 rawAddress = keccak256(\n      abi.encodePacked(\n        bytes1(0xff),\n        address(this),\n        salt,\n        contractCodeHash\n    )\n    );\n\n    return address(bytes20(rawAddress << 96));\n  }\n\n  function _createComicAccount(uint256 _salt, address payable _sender) internal returns (address) {\n    ComicAccount account = _deployComicAccount(_salt, _sender);\n    account.initialize(_sender);\n    emit ComicAccountCreated(address(account));\n\t\tcomics.push(account);\n    return address(account);\n  }\n\n  function _deployComicAccount(uint256 _salt, address payable _sender) internal returns (ComicAccount) {\n    address payable addr;\n    bytes memory code = type(ComicAccount).creationCode;\n    bytes32 salt = _getSalt(_salt, _sender);\n\n    assembly {\n      addr := create2(0, add(code, 0x20), mload(code), salt)\n      if iszero(extcodesize(addr)) {\n        revert(0, 0)\n      }\n    }\n\n    return ComicAccount(addr);\n  }\n\n  function _getSalt(uint256 _salt, address _sender) internal pure returns (bytes32) {\n    return keccak256(abi.encodePacked(_salt, _sender));\n  }\n\n  function setViews(address _comicAccount, uint256 _views) public {\n    comicViews[_comicAccount] += _views;\n\t\ttotalViews += _views;\n  }\n}\n",
  "sourcePath": "/Users/uchimuraseita/go/src/github.com/jphacks/TK_1907/smart-contract/contracts/MarineCore.sol",
  "compiler": {
    "name": "solc",
    "version": "0.5.12+commit.7709ece9.Emscripten.clang"
  },
  "schemaVersion": "3.0.11",
  "updatedAt": "2019-10-26T16:51:56.044Z",
  "devdoc": {
    "methods": {}
  },
  "userdoc": {
    "methods": {}
  }
}