{
  "contractName": "MarineCore",
  "abi": [
    {
      "inputs": [],
      "payable": false,
      "stateMutability": "nonpayable",
      "type": "constructor"
    },
    {
      "anonymous": false,
      "inputs": [
        {
          "indexed": false,
          "internalType": "address",
          "name": "_comicAccount",
          "type": "address"
        }
      ],
      "name": "ComicAccountCreated",
      "type": "event"
    },
    {
      "anonymous": false,
      "inputs": [
        {
          "indexed": true,
          "internalType": "address",
          "name": "previousOwner",
          "type": "address"
        }
      ],
      "name": "OwnershipRenounced",
      "type": "event"
    },
    {
      "anonymous": false,
      "inputs": [
        {
          "indexed": true,
          "internalType": "address",
          "name": "previousOwner",
          "type": "address"
        },
        {
          "indexed": true,
          "internalType": "address",
          "name": "newOwner",
          "type": "address"
        }
      ],
      "name": "OwnershipTransferred",
      "type": "event"
    },
    {
      "payable": false,
      "stateMutability": "nonpayable",
      "type": "fallback"
    },
    {
      "constant": true,
      "inputs": [],
      "name": "owner",
      "outputs": [
        {
          "internalType": "address",
          "name": "",
          "type": "address"
        }
      ],
      "payable": false,
      "stateMutability": "view",
      "type": "function"
    },
    {
      "constant": false,
      "inputs": [],
      "name": "reclaimEther",
      "outputs": [],
      "payable": false,
      "stateMutability": "nonpayable",
      "type": "function"
    },
    {
      "constant": false,
      "inputs": [],
      "name": "renounceOwnership",
      "outputs": [],
      "payable": false,
      "stateMutability": "nonpayable",
      "type": "function"
    },
    {
      "constant": false,
      "inputs": [
        {
          "internalType": "address",
          "name": "_newOwner",
          "type": "address"
        }
      ],
      "name": "transferOwnership",
      "outputs": [],
      "payable": false,
      "stateMutability": "nonpayable",
      "type": "function"
    },
    {
      "constant": false,
      "inputs": [
        {
          "internalType": "uint256",
          "name": "_salt",
          "type": "uint256"
        }
      ],
      "name": "createComicAccount",
      "outputs": [
        {
          "internalType": "address",
          "name": "",
          "type": "address"
        }
      ],
      "payable": false,
      "stateMutability": "nonpayable",
      "type": "function"
    },
    {
      "constant": true,
      "inputs": [
        {
          "internalType": "uint256",
          "name": "_salt",
          "type": "uint256"
        },
        {
          "internalType": "address payable",
          "name": "_sender",
          "type": "address"
        }
      ],
      "name": "getDeploymentAddress",
      "outputs": [
        {
          "internalType": "address",
          "name": "",
          "type": "address"
        }
      ],
      "payable": false,
      "stateMutability": "view",
      "type": "function"
    }
  ],
  "bytecode": "0x608060405234801561001057600080fd5b50600080546001600160a01b03191633179055341561009057604080517f08c379a000000000000000000000000000000000000000000000000000000000815260206004820152601360248201527f6d757374206e6f742073656e6420457468657200000000000000000000000000604482015290519081900360640190fd5b60405161009f602082016100c3565b601f1982820381018352601f909101166040528051602091909101206001556100d0565b610c67806112d683390190565b6111f7806100df6000396000f3fe608060405234801561001057600080fd5b50600436106100725760003560e01c80639f727c27116100505780639f727c27146100cc578063acb1250d146100d4578063f2fde38b146100f157610072565b8063715018a61461007457806381ae1f5b1461007c5780638da5cb5b146100c4575b005b610072610117565b6100a86004803603604081101561009257600080fd5b50803590602001356001600160a01b03166101bb565b604080516001600160a01b039092168252519081900360200190f35b6100a8610238565b610072610247565b6100a8600480360360208110156100ea57600080fd5b50356102c6565b6100726004803603602081101561010757600080fd5b50356001600160a01b03166102d8565b6000546001600160a01b03163314610166576040805162461bcd60e51b815260206004820152600d60248201526c36bab9ba1031329037bbb732b960991b604482015290519081900360640190fd5b600080546040516001600160a01b03909116917ff8df31144d9c2f0f6b59d69b8b98abd5459d07f2742c4df920b25aae33c6482091a26000805473ffffffffffffffffffffffffffffffffffffffff19169055565b6000806101c88484610330565b600154604080517fff000000000000000000000000000000000000000000000000000000000000006020808301919091523060601b6021830152603582019490945260558082019390935281518082039093018352607501905280519101206001600160a01b0316949350505050565b6000546001600160a01b031681565b6000546001600160a01b03163314610296576040805162461bcd60e51b815260206004820152600d60248201526c36bab9ba1031329037bbb732b960991b604482015290519081900360640190fd5b6040513390303180156108fc02916000818181858888f193505050501580156102c3573d6000803e3d6000fd5b50565b60006102d2823361036f565b92915050565b6000546001600160a01b03163314610327576040805162461bcd60e51b815260206004820152600d60248201526c36bab9ba1031329037bbb732b960991b604482015290519081900360640190fd5b6102c381610432565b6040805160208082019490945260609290921b6bffffffffffffffffffffffff1916828201528051808303603401815260549092019052805191012090565b60008061037c84846104f5565b9050806001600160a01b031663c4d66de8846040518263ffffffff1660e01b815260040180826001600160a01b03166001600160a01b03168152602001915050600060405180830381600087803b1580156103d657600080fd5b505af11580156103ea573d6000803e3d6000fd5b5050604080516001600160a01b038516815290517fa2d5fbadd2ffff9d7192ee31e5d9457dbc6f447b6369d9defd2935461c406a5d9350908190036020019150a19392505050565b6001600160a01b03811661048d576040805162461bcd60e51b815260206004820152601960248201527f63616e6e6f742072656e6f756e6365206f776e65727368697000000000000000604482015290519081900360640190fd5b600080546040516001600160a01b03808516939216917f8be0079c531659141344cd1fd0a4f28419497f9722a3daafe3b4186f6b6457e091a36000805473ffffffffffffffffffffffffffffffffffffffff19166001600160a01b0392909216919091179055565b60008060606040518060200161050a9061054e565b601f1982820381018352601f909101166040529050600061052b8686610330565b9050808251602084016000f59250823b61054457600080fd5b5090949350505050565b610c678061055c8339019056fe60806040526000805460ff1916905534801561001a57600080fd5b50610c3d8061002a6000396000f3fe6080604052600436106100c75760003560e01c806360d8fd6d116100745780639cc7f7081161004e5780639cc7f708146103c3578063c4d66de8146103ed578063d51b9e9314610420576100c7565b806360d8fd6d1461036657806365fe2a0b1461037b5780636dd7d8ea14610390576100c7565b80633477ee2e116100a55780633477ee2e146102b55780633ccfd60b146102fb57806343a9616f14610310576100c7565b8063093825ec14610230578063158ef93e14610275578063301fa53d1461029e575b600160009081526005602052347f1471eb6eb2c5e789fc3de43f8ce62938c7d1836ec861730447e2ada8fd81017b555461010090046001600160a01b0316156101a25761012c600161012034600a63ffffffff61045316565b9063ffffffff6104bf16565b6000805260056020527f05b8ccbb9d4d8fb16ea74ce3c29a41f1b461fbdaff4714a0d9a8eb05499746bc805491909101905561016e600161012034600a610453565b600160005260056020527f1471eb6eb2c5e789fc3de43f8ce62938c7d1836ec861730447e2ada8fd81017b80549190910390555b6101b8600161012034600a63ffffffff61045316565b600260005260056020527f89832631fb3c3307a103ba2c84ab569c64d6182a18893dcd163f0f1c2090733a80549190910190556101fb600161012034600a610453565b600160005260056020527f1471eb6eb2c5e789fc3de43f8ce62938c7d1836ec861730447e2ada8fd81017b8054919091039055005b34801561023c57600080fd5b506102636004803603602081101561025357600080fd5b50356001600160a01b031661051f565b60408051918252519081900360200190f35b34801561028157600080fd5b5061028a610531565b604080519115158252519081900360200190f35b3480156102aa57600080fd5b506102b361053a565b005b3480156102c157600080fd5b506102df600480360360208110156102d857600080fd5b50356105fc565b604080516001600160a01b039092168252519081900360200190f35b34801561030757600080fd5b506102b3610623565b34801561031c57600080fd5b506103436004803603602081101561033357600080fd5b50356001600160a01b0316610822565b6040805192151583526001600160a01b0390911660208301528051918290030190f35b34801561037257600080fd5b506102df610847565b34801561038757600080fd5b506102df610982565b34801561039c57600080fd5b506102b3600480360360208110156103b357600080fd5b50356001600160a01b0316610996565b3480156103cf57600080fd5b50610263600480360360208110156103e657600080fd5b5035610aae565b3480156103f957600080fd5b506102b36004803603602081101561041057600080fd5b50356001600160a01b0316610ac0565b34801561042c57600080fd5b5061028a6004803603602081101561044357600080fd5b50356001600160a01b0316610b62565b60008082116104a9576040805162461bcd60e51b815260206004820152601a60248201527f536166654d6174683a206469766973696f6e206279207a65726f000000000000604482015290519081900360640190fd5b60008284816104b457fe5b049150505b92915050565b6000826104ce575060006104b9565b828202828482816104db57fe5b04146105185760405162461bcd60e51b8152600401808060200182810382526021815260200180610b996021913960400191505060405180910390fd5b9392505050565b60036020526000908152604090205481565b60005460ff1681565b3360009081526002602052604090205460ff16156105895760405162461bcd60e51b8152600401808060200182810382526021815260200180610b786021913960400191505060405180910390fd5b336000818152600260205260408120805460ff191660019081179091558054808201825591527fb10e2d527612073b26eecdfd717e6a320cf44b4afac2b0732d9fcbe2b7fa0cf60180547fffffffffffffffffffffffff0000000000000000000000000000000000000000169091179055565b6001818154811061060957fe5b6000918252602090912001546001600160a01b0316905081565b60005461010090046001600160a01b0316610685576040805162461bcd60e51b815260206004820152601b60248201527f75706c6f61646572206973206e6f742079657420646566696e65640000000000604482015290519081900360640190fd5b600061068f610847565b60005490915061010090046001600160a01b031633141561070357600080805260056020527f05b8ccbb9d4d8fb16ea74ce3c29a41f1b461fbdaff4714a0d9a8eb05499746bc54604051339282156108fc02929190818181858888f19350505050158015610701573d6000803e3d6000fd5b505b6001600160a01b03811633141561076f576001600090815260056020527f1471eb6eb2c5e789fc3de43f8ce62938c7d1836ec861730447e2ada8fd81017b54604051339282156108fc02929190818181858888f1935050505015801561076d573d6000803e3d6000fd5b505b336000908152600460205260409020546001600160a01b0382811661010090920416141561081f576001600160a01b03811660009081526003602090815260408220546002835260059091527f89832631fb3c3307a103ba2c84ab569c64d6182a18893dcd163f0f1c2090733a546107ec9163ffffffff61045316565b604051909150339082156108fc029083906000818181858888f1935050505015801561081c573d6000803e3d6000fd5b50505b50565b60046020526000908152604090205460ff81169061010090046001600160a01b031682565b60015460009061089e576040805162461bcd60e51b815260206004820152601660248201527f7468657265206973206e6f2063616e6469646174657300000000000000000000604482015290519081900360640190fd5b600080805b60015481101561092057600060036000600184815481106108c057fe5b60009182526020808320909101546001600160a01b0316835282019290925260400190205490508084101561091757809350600182815481106108ff57fe5b6000918252602090912001546001600160a01b031692505b506001016108a3565b506001600160a01b03811661097c576040805162461bcd60e51b815260206004820152601f60248201527f63726561746f722061646472657373206973207a65726f206164647265737300604482015290519081900360640190fd5b91505090565b60005461010090046001600160a01b031681565b6001600160a01b03811660009081526002602052604090205460ff166109ed5760405162461bcd60e51b8152600401808060200182810382526024815260200180610be56024913960400191505060405180910390fd5b3360009081526004602052604090205460ff1615610a52576040805162461bcd60e51b815260206004820152601c60248201527f6d73672e73656e6465722068617320616c726561647920766f74656400000000604482015290519081900360640190fd5b6001600160a01b03166000818152600360209081526040808320805460019081019091553384526004909252909120805474ffffffffffffffffffffffffffffffffffffffff0019166101009093029290921760ff1916179055565b60056020526000908152604090205481565b60005460ff1615610b025760405162461bcd60e51b815260040180806020018281038252602b815260200180610bba602b913960400191505060405180910390fd5b60008054600174ffffffffffffffffffffffffffffffffffffffff00199091166101006001600160a01b038516021760ff19161781556040517f5daa87a0e9463431830481fd4b6e3403442dfb9a12b9c07597e9f61d50b633c89190a150565b60026020526000908152604090205460ff168156fe6d73672e73656e64657220697320616c726561647920612063616e646964617465536166654d6174683a206d756c7469706c69636174696f6e206f766572666c6f775468697320636f6e74726163742068617320616c7265616479206265656e20696e697469616c697a65642e7370656369666965642061646472657373206973206e6f7420612063616e646964617465a265627a7a72315820df8890353e6eab9b18348b3a1bf5c6a6894a14080b3a1623d5b0615c02cf907b64736f6c634300050c0032a265627a7a72315820be20644f56012e42fef737b2cf60de6327698a0dc38fbe2e2198ff4491c5710e64736f6c634300050c003260806040526000805460ff1916905534801561001a57600080fd5b50610c3d8061002a6000396000f3fe6080604052600436106100c75760003560e01c806360d8fd6d116100745780639cc7f7081161004e5780639cc7f708146103c3578063c4d66de8146103ed578063d51b9e9314610420576100c7565b806360d8fd6d1461036657806365fe2a0b1461037b5780636dd7d8ea14610390576100c7565b80633477ee2e116100a55780633477ee2e146102b55780633ccfd60b146102fb57806343a9616f14610310576100c7565b8063093825ec14610230578063158ef93e14610275578063301fa53d1461029e575b600160009081526005602052347f1471eb6eb2c5e789fc3de43f8ce62938c7d1836ec861730447e2ada8fd81017b555461010090046001600160a01b0316156101a25761012c600161012034600a63ffffffff61045316565b9063ffffffff6104bf16565b6000805260056020527f05b8ccbb9d4d8fb16ea74ce3c29a41f1b461fbdaff4714a0d9a8eb05499746bc805491909101905561016e600161012034600a610453565b600160005260056020527f1471eb6eb2c5e789fc3de43f8ce62938c7d1836ec861730447e2ada8fd81017b80549190910390555b6101b8600161012034600a63ffffffff61045316565b600260005260056020527f89832631fb3c3307a103ba2c84ab569c64d6182a18893dcd163f0f1c2090733a80549190910190556101fb600161012034600a610453565b600160005260056020527f1471eb6eb2c5e789fc3de43f8ce62938c7d1836ec861730447e2ada8fd81017b8054919091039055005b34801561023c57600080fd5b506102636004803603602081101561025357600080fd5b50356001600160a01b031661051f565b60408051918252519081900360200190f35b34801561028157600080fd5b5061028a610531565b604080519115158252519081900360200190f35b3480156102aa57600080fd5b506102b361053a565b005b3480156102c157600080fd5b506102df600480360360208110156102d857600080fd5b50356105fc565b604080516001600160a01b039092168252519081900360200190f35b34801561030757600080fd5b506102b3610623565b34801561031c57600080fd5b506103436004803603602081101561033357600080fd5b50356001600160a01b0316610822565b6040805192151583526001600160a01b0390911660208301528051918290030190f35b34801561037257600080fd5b506102df610847565b34801561038757600080fd5b506102df610982565b34801561039c57600080fd5b506102b3600480360360208110156103b357600080fd5b50356001600160a01b0316610996565b3480156103cf57600080fd5b50610263600480360360208110156103e657600080fd5b5035610aae565b3480156103f957600080fd5b506102b36004803603602081101561041057600080fd5b50356001600160a01b0316610ac0565b34801561042c57600080fd5b5061028a6004803603602081101561044357600080fd5b50356001600160a01b0316610b62565b60008082116104a9576040805162461bcd60e51b815260206004820152601a60248201527f536166654d6174683a206469766973696f6e206279207a65726f000000000000604482015290519081900360640190fd5b60008284816104b457fe5b049150505b92915050565b6000826104ce575060006104b9565b828202828482816104db57fe5b04146105185760405162461bcd60e51b8152600401808060200182810382526021815260200180610b996021913960400191505060405180910390fd5b9392505050565b60036020526000908152604090205481565b60005460ff1681565b3360009081526002602052604090205460ff16156105895760405162461bcd60e51b8152600401808060200182810382526021815260200180610b786021913960400191505060405180910390fd5b336000818152600260205260408120805460ff191660019081179091558054808201825591527fb10e2d527612073b26eecdfd717e6a320cf44b4afac2b0732d9fcbe2b7fa0cf60180547fffffffffffffffffffffffff0000000000000000000000000000000000000000169091179055565b6001818154811061060957fe5b6000918252602090912001546001600160a01b0316905081565b60005461010090046001600160a01b0316610685576040805162461bcd60e51b815260206004820152601b60248201527f75706c6f61646572206973206e6f742079657420646566696e65640000000000604482015290519081900360640190fd5b600061068f610847565b60005490915061010090046001600160a01b031633141561070357600080805260056020527f05b8ccbb9d4d8fb16ea74ce3c29a41f1b461fbdaff4714a0d9a8eb05499746bc54604051339282156108fc02929190818181858888f19350505050158015610701573d6000803e3d6000fd5b505b6001600160a01b03811633141561076f576001600090815260056020527f1471eb6eb2c5e789fc3de43f8ce62938c7d1836ec861730447e2ada8fd81017b54604051339282156108fc02929190818181858888f1935050505015801561076d573d6000803e3d6000fd5b505b336000908152600460205260409020546001600160a01b0382811661010090920416141561081f576001600160a01b03811660009081526003602090815260408220546002835260059091527f89832631fb3c3307a103ba2c84ab569c64d6182a18893dcd163f0f1c2090733a546107ec9163ffffffff61045316565b604051909150339082156108fc029083906000818181858888f1935050505015801561081c573d6000803e3d6000fd5b50505b50565b60046020526000908152604090205460ff81169061010090046001600160a01b031682565b60015460009061089e576040805162461bcd60e51b815260206004820152601660248201527f7468657265206973206e6f2063616e6469646174657300000000000000000000604482015290519081900360640190fd5b600080805b60015481101561092057600060036000600184815481106108c057fe5b60009182526020808320909101546001600160a01b0316835282019290925260400190205490508084101561091757809350600182815481106108ff57fe5b6000918252602090912001546001600160a01b031692505b506001016108a3565b506001600160a01b03811661097c576040805162461bcd60e51b815260206004820152601f60248201527f63726561746f722061646472657373206973207a65726f206164647265737300604482015290519081900360640190fd5b91505090565b60005461010090046001600160a01b031681565b6001600160a01b03811660009081526002602052604090205460ff166109ed5760405162461bcd60e51b8152600401808060200182810382526024815260200180610be56024913960400191505060405180910390fd5b3360009081526004602052604090205460ff1615610a52576040805162461bcd60e51b815260206004820152601c60248201527f6d73672e73656e6465722068617320616c726561647920766f74656400000000604482015290519081900360640190fd5b6001600160a01b03166000818152600360209081526040808320805460019081019091553384526004909252909120805474ffffffffffffffffffffffffffffffffffffffff0019166101009093029290921760ff1916179055565b60056020526000908152604090205481565b60005460ff1615610b025760405162461bcd60e51b815260040180806020018281038252602b815260200180610bba602b913960400191505060405180910390fd5b60008054600174ffffffffffffffffffffffffffffffffffffffff00199091166101006001600160a01b038516021760ff19161781556040517f5daa87a0e9463431830481fd4b6e3403442dfb9a12b9c07597e9f61d50b633c89190a150565b60026020526000908152604090205460ff168156fe6d73672e73656e64657220697320616c726561647920612063616e646964617465536166654d6174683a206d756c7469706c69636174696f6e206f766572666c6f775468697320636f6e74726163742068617320616c7265616479206265656e20696e697469616c697a65642e7370656369666965642061646472657373206973206e6f7420612063616e646964617465a265627a7a72315820df8890353e6eab9b18348b3a1bf5c6a6894a14080b3a1623d5b0615c02cf907b64736f6c634300050c0032",
  "source": "pragma solidity 0.5.12;\n\nimport \"./ComicAccount.sol\";\nimport \"./Ownership/HasNoEther.sol\";\n\ncontract MarineCore is HasNoEther {\n\n    event ComicAccountCreated(address _comicAccount);\n\n    bytes32 private contractCodeHash;\n\n    constructor() public {\n        contractCodeHash = keccak256(\n            type(ComicAccount).creationCode\n        );\n    }\n\n    function createComicAccount(uint256 _salt) public returns (address) {\n        return _createComicAccount(_salt, msg.sender);\n    }\n\n    function getDeploymentAddress(uint256 _salt, address payable _sender) public view returns (address) {\n        bytes32 salt = _getSalt(_salt, _sender);\n        bytes32 rawAddress = keccak256(\n            abi.encodePacked(\n                bytes1(0xff),\n                address(this),\n                salt,\n                contractCodeHash\n            )\n        );\n\n        return address(bytes20(rawAddress << 96));\n    }\n\n    function _createComicAccount(uint256 _salt, address payable _sender) internal returns (address) {\n        ComicAccount account = _deployComicAccount(_salt, _sender);\n        account.initialize(_sender);\n        emit ComicAccountCreated(address(account));\n        return address(account);\n    }\n\n    function _deployComicAccount(uint256 _salt, address payable _sender) internal returns (ComicAccount) {\n        address payable addr;\n        bytes memory code = type(ComicAccount).creationCode;\n        bytes32 salt = _getSalt(_salt, _sender);\n\n        assembly {\n            addr := create2(0, add(code, 0x20), mload(code), salt)\n            if iszero(extcodesize(addr)) {\n                revert(0, 0)\n            }\n        }\n\n        return ComicAccount(addr);\n    }\n\n    function _getSalt(uint256 _salt, address _sender) internal pure returns (bytes32) {\n        return keccak256(abi.encodePacked(_salt, _sender));\n    }\n}\n",
  "sourcePath": "/Users/uchimuraseita/go/src/github.com/jphacks/TK_1907/smart-contract/contracts/MarineCore.sol",
  "compiler": {
    "name": "solc",
    "version": "0.5.12+commit.7709ece9.Emscripten.clang"
  },
  "schemaVersion": "3.0.11",
  "updatedAt": "2019-10-26T08:43:28.378Z",
  "devdoc": {
    "methods": {
      "reclaimEther()": {
        "details": "Transfers all Ether held by this contract to the owner."
      },
      "renounceOwnership()": {
        "details": "Allows the current `owner` to renounce ownership"
      },
      "transferOwnership(address)": {
        "details": "Allows the current `owner` to transfer ownership",
        "params": {
          "_newOwner": "The new `owner`"
        }
      }
    }
  },
  "userdoc": {
    "methods": {}
  }
}