{
  "contractName": "MarineCore",
  "abi": [
    {
      "inputs": [],
      "payable": false,
      "stateMutability": "nonpayable",
      "type": "constructor"
    },
    {
      "anonymous": false,
      "inputs": [
        {
          "indexed": false,
          "internalType": "address",
          "name": "_comicAccount",
          "type": "address"
        }
      ],
      "name": "ComicAccountCreated",
      "type": "event"
    },
    {
      "anonymous": false,
      "inputs": [
        {
          "indexed": true,
          "internalType": "address",
          "name": "previousOwner",
          "type": "address"
        }
      ],
      "name": "OwnershipRenounced",
      "type": "event"
    },
    {
      "anonymous": false,
      "inputs": [
        {
          "indexed": true,
          "internalType": "address",
          "name": "previousOwner",
          "type": "address"
        },
        {
          "indexed": true,
          "internalType": "address",
          "name": "newOwner",
          "type": "address"
        }
      ],
      "name": "OwnershipTransferred",
      "type": "event"
    },
    {
      "payable": false,
      "stateMutability": "nonpayable",
      "type": "fallback"
    },
    {
      "constant": true,
      "inputs": [],
      "name": "owner",
      "outputs": [
        {
          "internalType": "address",
          "name": "",
          "type": "address"
        }
      ],
      "payable": false,
      "stateMutability": "view",
      "type": "function"
    },
    {
      "constant": false,
      "inputs": [],
      "name": "reclaimEther",
      "outputs": [],
      "payable": false,
      "stateMutability": "nonpayable",
      "type": "function"
    },
    {
      "constant": false,
      "inputs": [],
      "name": "renounceOwnership",
      "outputs": [],
      "payable": false,
      "stateMutability": "nonpayable",
      "type": "function"
    },
    {
      "constant": false,
      "inputs": [
        {
          "internalType": "address",
          "name": "_newOwner",
          "type": "address"
        }
      ],
      "name": "transferOwnership",
      "outputs": [],
      "payable": false,
      "stateMutability": "nonpayable",
      "type": "function"
    },
    {
      "constant": false,
      "inputs": [
        {
          "internalType": "uint256",
          "name": "_salt",
          "type": "uint256"
        }
      ],
      "name": "createComicAccount",
      "outputs": [
        {
          "internalType": "address",
          "name": "",
          "type": "address"
        }
      ],
      "payable": false,
      "stateMutability": "nonpayable",
      "type": "function"
    },
    {
      "constant": true,
      "inputs": [
        {
          "internalType": "uint256",
          "name": "_salt",
          "type": "uint256"
        },
        {
          "internalType": "address payable",
          "name": "_sender",
          "type": "address"
        }
      ],
      "name": "getDeploymentAddress",
      "outputs": [
        {
          "internalType": "address",
          "name": "",
          "type": "address"
        }
      ],
      "payable": false,
      "stateMutability": "view",
      "type": "function"
    }
  ],
  "bytecode": "0x608060405234801561001057600080fd5b50600080546001600160a01b03191633179055341561009057604080517f08c379a000000000000000000000000000000000000000000000000000000000815260206004820152601360248201527f6d757374206e6f742073656e6420457468657200000000000000000000000000604482015290519081900360640190fd5b60405161009f602082016100c3565b601f1982820381018352601f909101166040528051602091909101206001556100d0565b6102248061089383390190565b6107b4806100df6000396000f3fe608060405234801561001057600080fd5b50600436106100725760003560e01c80639f727c27116100505780639f727c27146100cc578063acb1250d146100d4578063f2fde38b146100f157610072565b8063715018a61461007457806381ae1f5b1461007c5780638da5cb5b146100c4575b005b610072610117565b6100a86004803603604081101561009257600080fd5b50803590602001356001600160a01b03166101bb565b604080516001600160a01b039092168252519081900360200190f35b6100a8610238565b610072610247565b6100a8600480360360208110156100ea57600080fd5b50356102c6565b6100726004803603602081101561010757600080fd5b50356001600160a01b03166102d8565b6000546001600160a01b03163314610166576040805162461bcd60e51b815260206004820152600d60248201526c36bab9ba1031329037bbb732b960991b604482015290519081900360640190fd5b600080546040516001600160a01b03909116917ff8df31144d9c2f0f6b59d69b8b98abd5459d07f2742c4df920b25aae33c6482091a26000805473ffffffffffffffffffffffffffffffffffffffff19169055565b6000806101c88484610330565b600154604080517fff000000000000000000000000000000000000000000000000000000000000006020808301919091523060601b6021830152603582019490945260558082019390935281518082039093018352607501905280519101206001600160a01b0316949350505050565b6000546001600160a01b031681565b6000546001600160a01b03163314610296576040805162461bcd60e51b815260206004820152600d60248201526c36bab9ba1031329037bbb732b960991b604482015290519081900360640190fd5b6040513390303180156108fc02916000818181858888f193505050501580156102c3573d6000803e3d6000fd5b50565b60006102d2823361036f565b92915050565b6000546001600160a01b03163314610327576040805162461bcd60e51b815260206004820152600d60248201526c36bab9ba1031329037bbb732b960991b604482015290519081900360640190fd5b6102c381610432565b6040805160208082019490945260609290921b6bffffffffffffffffffffffff1916828201528051808303603401815260549092019052805191012090565b60008061037c84846104f5565b9050806001600160a01b031663c4d66de8846040518263ffffffff1660e01b815260040180826001600160a01b03166001600160a01b03168152602001915050600060405180830381600087803b1580156103d657600080fd5b505af11580156103ea573d6000803e3d6000fd5b5050604080516001600160a01b038516815290517fa2d5fbadd2ffff9d7192ee31e5d9457dbc6f447b6369d9defd2935461c406a5d9350908190036020019150a19392505050565b6001600160a01b03811661048d576040805162461bcd60e51b815260206004820152601960248201527f63616e6e6f742072656e6f756e6365206f776e65727368697000000000000000604482015290519081900360640190fd5b600080546040516001600160a01b03808516939216917f8be0079c531659141344cd1fd0a4f28419497f9722a3daafe3b4186f6b6457e091a36000805473ffffffffffffffffffffffffffffffffffffffff19166001600160a01b0392909216919091179055565b60008060606040518060200161050a9061054e565b601f1982820381018352601f909101166040529050600061052b8686610330565b9050808251602084016000f59250823b61054457600080fd5b5090949350505050565b6102248061055c8339019056fe60806040526000805460ff1916905534801561001a57600080fd5b506101fa8061002a6000396000f3fe6080604052600436106100345760003560e01c8063158ef93e1461003657806365fe2a0b1461005f578063c4d66de81461009d575b005b34801561004257600080fd5b5061004b6100dd565b604080519115158252519081900360200190f35b34801561006b57600080fd5b506100746100e6565b6040805173ffffffffffffffffffffffffffffffffffffffff9092168252519081900360200190f35b3480156100a957600080fd5b50610034600480360360208110156100c057600080fd5b503573ffffffffffffffffffffffffffffffffffffffff16610107565b60005460ff1681565b600054610100900473ffffffffffffffffffffffffffffffffffffffff1681565b60005460ff1615610163576040517f08c379a000000000000000000000000000000000000000000000000000000000815260040180806020018281038252602b81526020018061019b602b913960400191505060405180910390fd5b6000805460ff191660011781556040517f5daa87a0e9463431830481fd4b6e3403442dfb9a12b9c07597e9f61d50b633c89190a15056fe5468697320636f6e74726163742068617320616c7265616479206265656e20696e697469616c697a65642ea265627a7a723158205e26719b13ac7f05ef40b2fa8c7ce1cb4f27c304812fed0387b288e298d5bf6264736f6c634300050c0032a265627a7a72315820bf59baf0098e5b11735b206f21e3499370d6e4cf3c3ba6cfc4b19bfc6fdda17a64736f6c634300050c003260806040526000805460ff1916905534801561001a57600080fd5b506101fa8061002a6000396000f3fe6080604052600436106100345760003560e01c8063158ef93e1461003657806365fe2a0b1461005f578063c4d66de81461009d575b005b34801561004257600080fd5b5061004b6100dd565b604080519115158252519081900360200190f35b34801561006b57600080fd5b506100746100e6565b6040805173ffffffffffffffffffffffffffffffffffffffff9092168252519081900360200190f35b3480156100a957600080fd5b50610034600480360360208110156100c057600080fd5b503573ffffffffffffffffffffffffffffffffffffffff16610107565b60005460ff1681565b600054610100900473ffffffffffffffffffffffffffffffffffffffff1681565b60005460ff1615610163576040517f08c379a000000000000000000000000000000000000000000000000000000000815260040180806020018281038252602b81526020018061019b602b913960400191505060405180910390fd5b6000805460ff191660011781556040517f5daa87a0e9463431830481fd4b6e3403442dfb9a12b9c07597e9f61d50b633c89190a15056fe5468697320636f6e74726163742068617320616c7265616479206265656e20696e697469616c697a65642ea265627a7a723158205e26719b13ac7f05ef40b2fa8c7ce1cb4f27c304812fed0387b288e298d5bf6264736f6c634300050c0032",
  "source": "pragma solidity 0.5.12;\n\nimport \"./ComicAccount.sol\";\nimport \"./Ownership/HasNoEther.sol\";\n\ncontract MarineCore is HasNoEther {\n\n    event ComicAccountCreated(address _comicAccount);\n\n    bytes32 private contractCodeHash;\n\n    constructor() public {\n        contractCodeHash = keccak256(\n            type(ComicAccount).creationCode\n        );\n    }\n\n    function createComicAccount(uint256 _salt) public returns (address) {\n        return _createComicAccount(_salt, msg.sender);\n    }\n\n    function getDeploymentAddress(uint256 _salt, address payable _sender) public view returns (address) {\n        bytes32 salt = _getSalt(_salt, _sender);\n        bytes32 rawAddress = keccak256(\n            abi.encodePacked(\n                bytes1(0xff),\n                address(this),\n                salt,\n                contractCodeHash\n            )\n        );\n\n        return address(bytes20(rawAddress << 96));\n    }\n\n    function _createComicAccount(uint256 _salt, address payable _sender) internal returns (address) {\n        ComicAccount account = _deployComicAccount(_salt, _sender);\n        account.initialize(_sender);\n        emit ComicAccountCreated(address(account));\n        return address(account);\n    }\n\n    function _deployComicAccount(uint256 _salt, address payable _sender) internal returns (ComicAccount) {\n        address payable addr;\n        bytes memory code = type(ComicAccount).creationCode;\n        bytes32 salt = _getSalt(_salt, _sender);\n\n        assembly {\n            addr := create2(0, add(code, 0x20), mload(code), salt)\n            if iszero(extcodesize(addr)) {\n                revert(0, 0)\n            }\n        }\n\n        return ComicAccount(addr);\n    }\n\n    function _getSalt(uint256 _salt, address _sender) internal pure returns (bytes32) {\n        return keccak256(abi.encodePacked(_salt, _sender));\n    }\n}\n",
  "sourcePath": "/Users/uchimuraseita/go/src/github.com/jphacks/TK_1907/smart-contract/contracts/MarineCore.sol",
  "compiler": {
    "name": "solc",
    "version": "0.5.12+commit.7709ece9.Emscripten.clang"
  },
  "schemaVersion": "3.0.11",
  "updatedAt": "2019-10-26T03:04:51.633Z",
  "devdoc": {
    "methods": {
      "reclaimEther()": {
        "details": "Transfers all Ether held by this contract to the owner."
      },
      "renounceOwnership()": {
        "details": "Allows the current `owner` to renounce ownership"
      },
      "transferOwnership(address)": {
        "details": "Allows the current `owner` to transfer ownership",
        "params": {
          "_newOwner": "The new `owner`"
        }
      }
    }
  },
  "userdoc": {
    "methods": {}
  }
}